{
  "_format": "hh-sol-artifact-1",
  "contractName": "NFTToken",
  "sourceName": "contracts/NFTToken.sol",
  "abi": [
    {
      "inputs": [
        {
          "internalType": "string",
          "name": "_name",
          "type": "string"
        },
        {
          "internalType": "string",
          "name": "_symbol",
          "type": "string"
        }
      ],
      "stateMutability": "nonpayable",
      "type": "constructor"
    },
    {
      "inputs": [],
      "name": "ERC721EnumerableForbiddenBatchMint",
      "type": "error"
    },
    {
      "inputs": [
        {
          "internalType": "address",
          "name": "sender",
          "type": "address"
        },
        {
          "internalType": "uint256",
          "name": "tokenId",
          "type": "uint256"
        },
        {
          "internalType": "address",
          "name": "owner",
          "type": "address"
        }
      ],
      "name": "ERC721IncorrectOwner",
      "type": "error"
    },
    {
      "inputs": [
        {
          "internalType": "address",
          "name": "operator",
          "type": "address"
        },
        {
          "internalType": "uint256",
          "name": "tokenId",
          "type": "uint256"
        }
      ],
      "name": "ERC721InsufficientApproval",
      "type": "error"
    },
    {
      "inputs": [
        {
          "internalType": "address",
          "name": "approver",
          "type": "address"
        }
      ],
      "name": "ERC721InvalidApprover",
      "type": "error"
    },
    {
      "inputs": [
        {
          "internalType": "address",
          "name": "operator",
          "type": "address"
        }
      ],
      "name": "ERC721InvalidOperator",
      "type": "error"
    },
    {
      "inputs": [
        {
          "internalType": "address",
          "name": "owner",
          "type": "address"
        }
      ],
      "name": "ERC721InvalidOwner",
      "type": "error"
    },
    {
      "inputs": [
        {
          "internalType": "address",
          "name": "receiver",
          "type": "address"
        }
      ],
      "name": "ERC721InvalidReceiver",
      "type": "error"
    },
    {
      "inputs": [
        {
          "internalType": "address",
          "name": "sender",
          "type": "address"
        }
      ],
      "name": "ERC721InvalidSender",
      "type": "error"
    },
    {
      "inputs": [
        {
          "internalType": "uint256",
          "name": "tokenId",
          "type": "uint256"
        }
      ],
      "name": "ERC721NonexistentToken",
      "type": "error"
    },
    {
      "inputs": [
        {
          "internalType": "address",
          "name": "owner",
          "type": "address"
        },
        {
          "internalType": "uint256",
          "name": "index",
          "type": "uint256"
        }
      ],
      "name": "ERC721OutOfBoundsIndex",
      "type": "error"
    },
    {
      "inputs": [
        {
          "internalType": "address",
          "name": "owner",
          "type": "address"
        }
      ],
      "name": "OwnableInvalidOwner",
      "type": "error"
    },
    {
      "inputs": [
        {
          "internalType": "address",
          "name": "account",
          "type": "address"
        }
      ],
      "name": "OwnableUnauthorizedAccount",
      "type": "error"
    },
    {
      "anonymous": false,
      "inputs": [
        {
          "indexed": true,
          "internalType": "address",
          "name": "owner",
          "type": "address"
        },
        {
          "indexed": true,
          "internalType": "address",
          "name": "approved",
          "type": "address"
        },
        {
          "indexed": true,
          "internalType": "uint256",
          "name": "tokenId",
          "type": "uint256"
        }
      ],
      "name": "Approval",
      "type": "event"
    },
    {
      "anonymous": false,
      "inputs": [
        {
          "indexed": true,
          "internalType": "address",
          "name": "owner",
          "type": "address"
        },
        {
          "indexed": true,
          "internalType": "address",
          "name": "operator",
          "type": "address"
        },
        {
          "indexed": false,
          "internalType": "bool",
          "name": "approved",
          "type": "bool"
        }
      ],
      "name": "ApprovalForAll",
      "type": "event"
    },
    {
      "anonymous": false,
      "inputs": [
        {
          "indexed": false,
          "internalType": "uint256",
          "name": "_fromTokenId",
          "type": "uint256"
        },
        {
          "indexed": false,
          "internalType": "uint256",
          "name": "_toTokenId",
          "type": "uint256"
        }
      ],
      "name": "BatchMetadataUpdate",
      "type": "event"
    },
    {
      "anonymous": false,
      "inputs": [
        {
          "indexed": false,
          "internalType": "uint256",
          "name": "_tokenId",
          "type": "uint256"
        }
      ],
      "name": "MetadataUpdate",
      "type": "event"
    },
    {
      "anonymous": false,
      "inputs": [
        {
          "indexed": true,
          "internalType": "address",
          "name": "minter",
          "type": "address"
        }
      ],
      "name": "MinterAuthorized",
      "type": "event"
    },
    {
      "anonymous": false,
      "inputs": [
        {
          "indexed": true,
          "internalType": "address",
          "name": "minter",
          "type": "address"
        }
      ],
      "name": "MinterRevoked",
      "type": "event"
    },
    {
      "anonymous": false,
      "inputs": [
        {
          "indexed": true,
          "internalType": "address",
          "name": "previousOwner",
          "type": "address"
        },
        {
          "indexed": true,
          "internalType": "address",
          "name": "newOwner",
          "type": "address"
        }
      ],
      "name": "OwnershipTransferred",
      "type": "event"
    },
    {
      "anonymous": false,
      "inputs": [
        {
          "indexed": true,
          "internalType": "address",
          "name": "minter",
          "type": "address"
        },
        {
          "indexed": true,
          "internalType": "address",
          "name": "to",
          "type": "address"
        },
        {
          "indexed": false,
          "internalType": "uint256",
          "name": "tokenId",
          "type": "uint256"
        }
      ],
      "name": "TokenMinted",
      "type": "event"
    },
    {
      "anonymous": false,
      "inputs": [
        {
          "indexed": true,
          "internalType": "address",
          "name": "from",
          "type": "address"
        },
        {
          "indexed": true,
          "internalType": "address",
          "name": "to",
          "type": "address"
        },
        {
          "indexed": true,
          "internalType": "uint256",
          "name": "tokenId",
          "type": "uint256"
        }
      ],
      "name": "Transfer",
      "type": "event"
    },
    {
      "inputs": [
        {
          "internalType": "address",
          "name": "minter",
          "type": "address"
        }
      ],
      "name": "addMinter",
      "outputs": [],
      "stateMutability": "nonpayable",
      "type": "function"
    },
    {
      "inputs": [
        {
          "internalType": "address",
          "name": "to",
          "type": "address"
        },
        {
          "internalType": "uint256",
          "name": "tokenId",
          "type": "uint256"
        }
      ],
      "name": "approve",
      "outputs": [],
      "stateMutability": "nonpayable",
      "type": "function"
    },
    {
      "inputs": [
        {
          "internalType": "address",
          "name": "",
          "type": "address"
        }
      ],
      "name": "authorizedMinters",
      "outputs": [
        {
          "internalType": "bool",
          "name": "",
          "type": "bool"
        }
      ],
      "stateMutability": "view",
      "type": "function"
    },
    {
      "inputs": [
        {
          "internalType": "address",
          "name": "owner",
          "type": "address"
        }
      ],
      "name": "balanceOf",
      "outputs": [
        {
          "internalType": "uint256",
          "name": "",
          "type": "uint256"
        }
      ],
      "stateMutability": "view",
      "type": "function"
    },
    {
      "inputs": [
        {
          "internalType": "uint256",
          "name": "tokenId",
          "type": "uint256"
        }
      ],
      "name": "burn",
      "outputs": [],
      "stateMutability": "nonpayable",
      "type": "function"
    },
    {
      "inputs": [
        {
          "internalType": "uint256",
          "name": "tokenId",
          "type": "uint256"
        }
      ],
      "name": "getApproved",
      "outputs": [
        {
          "internalType": "address",
          "name": "",
          "type": "address"
        }
      ],
      "stateMutability": "view",
      "type": "function"
    },
    {
      "inputs": [
        {
          "internalType": "address",
          "name": "minter",
          "type": "address"
        }
      ],
      "name": "getMinterMintCount",
      "outputs": [
        {
          "internalType": "uint256",
          "name": "",
          "type": "uint256"
        }
      ],
      "stateMutability": "view",
      "type": "function"
    },
    {
      "inputs": [
        {
          "internalType": "address",
          "name": "owner",
          "type": "address"
        },
        {
          "internalType": "address",
          "name": "operator",
          "type": "address"
        }
      ],
      "name": "isApprovedForAll",
      "outputs": [
        {
          "internalType": "bool",
          "name": "",
          "type": "bool"
        }
      ],
      "stateMutability": "view",
      "type": "function"
    },
    {
      "inputs": [
        {
          "internalType": "address",
          "name": "account",
          "type": "address"
        }
      ],
      "name": "isMinter",
      "outputs": [
        {
          "internalType": "bool",
          "name": "",
          "type": "bool"
        }
      ],
      "stateMutability": "view",
      "type": "function"
    },
    {
      "inputs": [
        {
          "internalType": "address",
          "name": "",
          "type": "address"
        }
      ],
      "name": "minterMintCount",
      "outputs": [
        {
          "internalType": "uint256",
          "name": "",
          "type": "uint256"
        }
      ],
      "stateMutability": "view",
      "type": "function"
    },
    {
      "inputs": [],
      "name": "name",
      "outputs": [
        {
          "internalType": "string",
          "name": "",
          "type": "string"
        }
      ],
      "stateMutability": "view",
      "type": "function"
    },
    {
      "inputs": [],
      "name": "owner",
      "outputs": [
        {
          "internalType": "address",
          "name": "",
          "type": "address"
        }
      ],
      "stateMutability": "view",
      "type": "function"
    },
    {
      "inputs": [
        {
          "internalType": "uint256",
          "name": "tokenId",
          "type": "uint256"
        }
      ],
      "name": "ownerOf",
      "outputs": [
        {
          "internalType": "address",
          "name": "",
          "type": "address"
        }
      ],
      "stateMutability": "view",
      "type": "function"
    },
    {
      "inputs": [
        {
          "internalType": "address",
          "name": "minter",
          "type": "address"
        }
      ],
      "name": "removeMinter",
      "outputs": [],
      "stateMutability": "nonpayable",
      "type": "function"
    },
    {
      "inputs": [],
      "name": "renounceOwnership",
      "outputs": [],
      "stateMutability": "nonpayable",
      "type": "function"
    },
    {
      "inputs": [
        {
          "internalType": "address",
          "name": "minter",
          "type": "address"
        }
      ],
      "name": "resetMinterMintCount",
      "outputs": [],
      "stateMutability": "nonpayable",
      "type": "function"
    },
    {
      "inputs": [
        {
          "internalType": "address",
          "name": "to",
          "type": "address"
        }
      ],
      "name": "safeMint",
      "outputs": [
        {
          "internalType": "uint256",
          "name": "",
          "type": "uint256"
        }
      ],
      "stateMutability": "nonpayable",
      "type": "function"
    },
    {
      "inputs": [
        {
          "internalType": "address",
          "name": "from",
          "type": "address"
        },
        {
          "internalType": "address",
          "name": "to",
          "type": "address"
        },
        {
          "internalType": "uint256",
          "name": "tokenId",
          "type": "uint256"
        }
      ],
      "name": "safeTransferFrom",
      "outputs": [],
      "stateMutability": "nonpayable",
      "type": "function"
    },
    {
      "inputs": [
        {
          "internalType": "address",
          "name": "from",
          "type": "address"
        },
        {
          "internalType": "address",
          "name": "to",
          "type": "address"
        },
        {
          "internalType": "uint256",
          "name": "tokenId",
          "type": "uint256"
        },
        {
          "internalType": "bytes",
          "name": "data",
          "type": "bytes"
        }
      ],
      "name": "safeTransferFrom",
      "outputs": [],
      "stateMutability": "nonpayable",
      "type": "function"
    },
    {
      "inputs": [
        {
          "internalType": "address",
          "name": "operator",
          "type": "address"
        },
        {
          "internalType": "bool",
          "name": "approved",
          "type": "bool"
        }
      ],
      "name": "setApprovalForAll",
      "outputs": [],
      "stateMutability": "nonpayable",
      "type": "function"
    },
    {
      "inputs": [
        {
          "internalType": "bytes4",
          "name": "interfaceId",
          "type": "bytes4"
        }
      ],
      "name": "supportsInterface",
      "outputs": [
        {
          "internalType": "bool",
          "name": "",
          "type": "bool"
        }
      ],
      "stateMutability": "view",
      "type": "function"
    },
    {
      "inputs": [],
      "name": "symbol",
      "outputs": [
        {
          "internalType": "string",
          "name": "",
          "type": "string"
        }
      ],
      "stateMutability": "view",
      "type": "function"
    },
    {
      "inputs": [
        {
          "internalType": "uint256",
          "name": "index",
          "type": "uint256"
        }
      ],
      "name": "tokenByIndex",
      "outputs": [
        {
          "internalType": "uint256",
          "name": "",
          "type": "uint256"
        }
      ],
      "stateMutability": "view",
      "type": "function"
    },
    {
      "inputs": [
        {
          "internalType": "address",
          "name": "owner",
          "type": "address"
        },
        {
          "internalType": "uint256",
          "name": "index",
          "type": "uint256"
        }
      ],
      "name": "tokenOfOwnerByIndex",
      "outputs": [
        {
          "internalType": "uint256",
          "name": "",
          "type": "uint256"
        }
      ],
      "stateMutability": "view",
      "type": "function"
    },
    {
      "inputs": [
        {
          "internalType": "uint256",
          "name": "tokenId",
          "type": "uint256"
        }
      ],
      "name": "tokenURI",
      "outputs": [
        {
          "internalType": "string",
          "name": "",
          "type": "string"
        }
      ],
      "stateMutability": "view",
      "type": "function"
    },
    {
      "inputs": [],
      "name": "totalSupply",
      "outputs": [
        {
          "internalType": "uint256",
          "name": "",
          "type": "uint256"
        }
      ],
      "stateMutability": "view",
      "type": "function"
    },
    {
      "inputs": [
        {
          "internalType": "address",
          "name": "from",
          "type": "address"
        },
        {
          "internalType": "address",
          "name": "to",
          "type": "address"
        },
        {
          "internalType": "uint256",
          "name": "tokenId",
          "type": "uint256"
        }
      ],
      "name": "transferFrom",
      "outputs": [],
      "stateMutability": "nonpayable",
      "type": "function"
    },
    {
      "inputs": [
        {
          "internalType": "address",
          "name": "newOwner",
          "type": "address"
        }
      ],
      "name": "transferOwnership",
      "outputs": [],
      "stateMutability": "nonpayable",
      "type": "function"
    }
  ],
  "bytecode": "0x60806040523480156200001157600080fd5b506040516200401d3803806200401d833981810160405281019062000037919062000348565b33828281600090816200004b919062000618565b5080600190816200005d919062000618565b505050600073ffffffffffffffffffffffffffffffffffffffff168173ffffffffffffffffffffffffffffffffffffffff1603620000d55760006040517f1e4fbdf7000000000000000000000000000000000000000000000000000000008152600401620000cc919062000744565b60405180910390fd5b620000e681620000ef60201b60201c565b50505062000761565b6000600b60009054906101000a900473ffffffffffffffffffffffffffffffffffffffff16905081600b60006101000a81548173ffffffffffffffffffffffffffffffffffffffff021916908373ffffffffffffffffffffffffffffffffffffffff1602179055508173ffffffffffffffffffffffffffffffffffffffff168173ffffffffffffffffffffffffffffffffffffffff167f8be0079c531659141344cd1fd0a4f28419497f9722a3daafe3b4186f6b6457e060405160405180910390a35050565b6000604051905090565b600080fd5b600080fd5b600080fd5b600080fd5b6000601f19601f8301169050919050565b7f4e487b7100000000000000000000000000000000000000000000000000000000600052604160045260246000fd5b6200021e82620001d3565b810181811067ffffffffffffffff8211171562000240576200023f620001e4565b5b80604052505050565b600062000255620001b5565b905062000263828262000213565b919050565b600067ffffffffffffffff821115620002865762000285620001e4565b5b6200029182620001d3565b9050602081019050919050565b60005b83811015620002be578082015181840152602081019050620002a1565b60008484015250505050565b6000620002e1620002db8462000268565b62000249565b9050828152602081018484840111156200030057620002ff620001ce565b5b6200030d8482856200029e565b509392505050565b600082601f8301126200032d576200032c620001c9565b5b81516200033f848260208601620002ca565b91505092915050565b60008060408385031215620003625762000361620001bf565b5b600083015167ffffffffffffffff811115620003835762000382620001c4565b5b620003918582860162000315565b925050602083015167ffffffffffffffff811115620003b557620003b4620001c4565b5b620003c38582860162000315565b9150509250929050565b600081519050919050565b7f4e487b7100000000000000000000000000000000000000000000000000000000600052602260045260246000fd5b600060028204905060018216806200042057607f821691505b602082108103620004365762000435620003d8565b5b50919050565b60008190508160005260206000209050919050565b60006020601f8301049050919050565b600082821b905092915050565b600060088302620004a07fffffffffffffffffffffffffffffffffffffffffffffffffffffffffffffffff8262000461565b620004ac868362000461565b95508019841693508086168417925050509392505050565b6000819050919050565b6000819050919050565b6000620004f9620004f3620004ed84620004c4565b620004ce565b620004c4565b9050919050565b6000819050919050565b6200051583620004d8565b6200052d620005248262000500565b8484546200046e565b825550505050565b600090565b6200054462000535565b620005518184846200050a565b505050565b5b8181101562000579576200056d6000826200053a565b60018101905062000557565b5050565b601f821115620005c85762000592816200043c565b6200059d8462000451565b81016020851015620005ad578190505b620005c5620005bc8562000451565b83018262000556565b50505b505050565b600082821c905092915050565b6000620005ed60001984600802620005cd565b1980831691505092915050565b6000620006088383620005da565b9150826002028217905092915050565b6200062382620003cd565b67ffffffffffffffff8111156200063f576200063e620001e4565b5b6200064b825462000407565b620006588282856200057d565b600060209050601f8311600181146200069057600084156200067b578287015190505b620006878582620005fa565b865550620006f7565b601f198416620006a0866200043c565b60005b82811015620006ca57848901518255600182019150602085019450602081019050620006a3565b86831015620006ea5784890151620006e6601f891682620005da565b8355505b6001600288020188555050505b505050505050565b600073ffffffffffffffffffffffffffffffffffffffff82169050919050565b60006200072c82620006ff565b9050919050565b6200073e816200071f565b82525050565b60006020820190506200075b600083018462000733565b92915050565b6138ac80620007716000396000f3fe608060405234801561001057600080fd5b50600436106101c45760003560e01c80634f6ccce7116100f9578063a22cb46511610097578063b88d4fde11610071578063b88d4fde1461053b578063c87b56dd14610557578063e985e9c514610587578063f2fde38b146105b7576101c4565b8063a22cb465146104bf578063aa271e1a146104db578063aa2fe91b1461050b576101c4565b8063715018a6116100d3578063715018a61461045d5780638da5cb5b1461046757806395d89b4114610485578063983b2d56146104a3576101c4565b80634f6ccce7146103cd5780636352211e146103fd57806370a082311461042d576101c4565b80632f745c591161016657806340d097c31161014057806340d097c31461033557806342842e0e1461036557806342966c68146103815780634446d3f51461039d576101c4565b80632f745c59146102b95780633092afd5146102e9578063377727f814610305576101c4565b806309146824116101a25780630914682414610247578063095ea7b31461026357806318160ddd1461027f57806323b872dd1461029d576101c4565b806301ffc9a7146101c957806306fdde03146101f9578063081812fc14610217575b600080fd5b6101e360048036038101906101de9190612ad2565b6105d3565b6040516101f09190612b1a565b60405180910390f35b6102016105e5565b60405161020e9190612bc5565b60405180910390f35b610231600480360381019061022c9190612c1d565b610677565b60405161023e9190612c8b565b60405180910390f35b610261600480360381019061025c9190612cd2565b610693565b005b61027d60048036038101906102789190612cff565b61076f565b005b610287610785565b6040516102949190612d4e565b60405180910390f35b6102b760048036038101906102b29190612d69565b610792565b005b6102d360048036038101906102ce9190612cff565b610894565b6040516102e09190612d4e565b60405180910390f35b61030360048036038101906102fe9190612cd2565b61093d565b005b61031f600480360381019061031a9190612cd2565b610ab2565b60405161032c9190612d4e565b60405180910390f35b61034f600480360381019061034a9190612cd2565b610afb565b60405161035c9190612d4e565b60405180910390f35b61037f600480360381019061037a9190612d69565b610d90565b005b61039b60048036038101906103969190612c1d565b610db0565b005b6103b760048036038101906103b29190612cd2565b610dc7565b6040516103c49190612d4e565b60405180910390f35b6103e760048036038101906103e29190612c1d565b610ddf565b6040516103f49190612d4e565b60405180910390f35b61041760048036038101906104129190612c1d565b610e55565b6040516104249190612c8b565b60405180910390f35b61044760048036038101906104429190612cd2565b610e67565b6040516104549190612d4e565b60405180910390f35b610465610f21565b005b61046f610f35565b60405161047c9190612c8b565b60405180910390f35b61048d610f5f565b60405161049a9190612bc5565b60405180910390f35b6104bd60048036038101906104b89190612cd2565b610ff1565b005b6104d960048036038101906104d49190612de8565b6111d8565b005b6104f560048036038101906104f09190612cd2565b6111ee565b6040516105029190612b1a565b60405180910390f35b61052560048036038101906105209190612cd2565b6112d3565b6040516105329190612b1a565b60405180910390f35b61055560048036038101906105509190612f5d565b6112f3565b005b610571600480360381019061056c9190612c1d565b611318565b60405161057e9190612bc5565b60405180910390f35b6105a1600480360381019061059c9190612fe0565b61132a565b6040516105ae9190612b1a565b60405180910390f35b6105d160048036038101906105cc9190612cd2565b6113be565b005b60006105de82611444565b9050919050565b6060600080546105f49061304f565b80601f01602080910402602001604051908101604052809291908181526020018280546106209061304f565b801561066d5780601f106106425761010080835404028352916020019161066d565b820191906000526020600020905b81548152906001019060200180831161065057829003601f168201915b5050505050905090565b6000610682826114a5565b5061068c8261152d565b9050919050565b61069b61156a565b600d60008273ffffffffffffffffffffffffffffffffffffffff1673ffffffffffffffffffffffffffffffffffffffff16815260200190815260200160002060009054906101000a900460ff16610727576040517f08c379a000000000000000000000000000000000000000000000000000000000815260040161071e906130f2565b60405180910390fd5b6000600e60008373ffffffffffffffffffffffffffffffffffffffff1673ffffffffffffffffffffffffffffffffffffffff1681526020019081526020016000208190555050565b610781828261077c6115f1565b6115f9565b5050565b6000600880549050905090565b600073ffffffffffffffffffffffffffffffffffffffff168273ffffffffffffffffffffffffffffffffffffffff16036108045760006040517f64a0ae920000000000000000000000000000000000000000000000000000000081526004016107fb9190612c8b565b60405180910390fd5b600061081883836108136115f1565b61160b565b90508373ffffffffffffffffffffffffffffffffffffffff168173ffffffffffffffffffffffffffffffffffffffff161461088e578382826040517f64283d7b00000000000000000000000000000000000000000000000000000000815260040161088593929190613112565b60405180910390fd5b50505050565b600061089f83610e67565b82106108e45782826040517fa57d13dc0000000000000000000000000000000000000000000000000000000081526004016108db929190613149565b60405180910390fd5b600660008473ffffffffffffffffffffffffffffffffffffffff1673ffffffffffffffffffffffffffffffffffffffff168152602001908152602001600020600083815260200190815260200160002054905092915050565b61094561156a565b600d60008273ffffffffffffffffffffffffffffffffffffffff1673ffffffffffffffffffffffffffffffffffffffff16815260200190815260200160002060009054906101000a900460ff166109d1576040517f08c379a00000000000000000000000000000000000000000000000000000000081526004016109c8906131be565b60405180910390fd5b6000600d60008373ffffffffffffffffffffffffffffffffffffffff1673ffffffffffffffffffffffffffffffffffffffff16815260200190815260200160002060006101000a81548160ff021916908315150217905550600e60008273ffffffffffffffffffffffffffffffffffffffff1673ffffffffffffffffffffffffffffffffffffffff168152602001908152602001600020600090558073ffffffffffffffffffffffffffffffffffffffff167f44f4322f8daa225d5f4877ad0f7d3dfba248a774396f3ca99405ed40a044fe8160405160405180910390a250565b6000600e60008373ffffffffffffffffffffffffffffffffffffffff1673ffffffffffffffffffffffffffffffffffffffff168152602001908152602001600020549050919050565b600080610b066115f1565b73ffffffffffffffffffffffffffffffffffffffff16610b24610f35565b73ffffffffffffffffffffffffffffffffffffffff161490506000600d6000610b4b6115f1565b73ffffffffffffffffffffffffffffffffffffffff1673ffffffffffffffffffffffffffffffffffffffff16815260200190815260200160002060009054906101000a900460ff169050600080600e6000610ba46115f1565b73ffffffffffffffffffffffffffffffffffffffff1673ffffffffffffffffffffffffffffffffffffffff168152602001908152602001600020541490508280610bf45750818015610bf35750805b5b610c33576040517f08c379a0000000000000000000000000000000000000000000000000000000008152600401610c2a90613250565b60405180910390fd5b6000600c6000815480929190610c489061329f565b919050559050610c588682611621565b610c7a816040518060600160405280603581526020016138426035913961163f565b610c82610f35565b73ffffffffffffffffffffffffffffffffffffffff16610ca06115f1565b73ffffffffffffffffffffffffffffffffffffffff1614610d1857600e6000610cc76115f1565b73ffffffffffffffffffffffffffffffffffffffff1673ffffffffffffffffffffffffffffffffffffffff1681526020019081526020016000206000815480929190610d129061329f565b91905055505b8573ffffffffffffffffffffffffffffffffffffffff16610d376115f1565b73ffffffffffffffffffffffffffffffffffffffff167fdf1b2b09e9800d31c599375056be9f9e4eb37f078102643600c4e149714efaad83604051610d7c9190612d4e565b60405180910390a380945050505050919050565b610dab838383604051806020016040528060008152506112f3565b505050565b610dc3600082610dbe6115f1565b61160b565b5050565b600e6020528060005260406000206000915090505481565b6000610de9610785565b8210610e2f576000826040517fa57d13dc000000000000000000000000000000000000000000000000000000008152600401610e26929190613149565b60405180910390fd5b60088281548110610e4357610e426132e7565b5b90600052602060002001549050919050565b6000610e60826114a5565b9050919050565b60008073ffffffffffffffffffffffffffffffffffffffff168273ffffffffffffffffffffffffffffffffffffffff1603610eda5760006040517f89c62b64000000000000000000000000000000000000000000000000000000008152600401610ed19190612c8b565b60405180910390fd5b600360008373ffffffffffffffffffffffffffffffffffffffff1673ffffffffffffffffffffffffffffffffffffffff168152602001908152602001600020549050919050565b610f2961156a565b610f33600061169b565b565b6000600b60009054906101000a900473ffffffffffffffffffffffffffffffffffffffff16905090565b606060018054610f6e9061304f565b80601f0160208091040260200160405190810160405280929190818152602001828054610f9a9061304f565b8015610fe75780601f10610fbc57610100808354040283529160200191610fe7565b820191906000526020600020905b815481529060010190602001808311610fca57829003601f168201915b5050505050905090565b610ff961156a565b600073ffffffffffffffffffffffffffffffffffffffff168173ffffffffffffffffffffffffffffffffffffffff1603611068576040517f08c379a000000000000000000000000000000000000000000000000000000000815260040161105f90613362565b60405180910390fd5b600d60008273ffffffffffffffffffffffffffffffffffffffff1673ffffffffffffffffffffffffffffffffffffffff16815260200190815260200160002060009054906101000a900460ff16156110f5576040517f08c379a00000000000000000000000000000000000000000000000000000000081526004016110ec906133ce565b60405180910390fd5b6001600d60008373ffffffffffffffffffffffffffffffffffffffff1673ffffffffffffffffffffffffffffffffffffffff16815260200190815260200160002060006101000a81548160ff0219169083151502179055506000600e60008373ffffffffffffffffffffffffffffffffffffffff1673ffffffffffffffffffffffffffffffffffffffff168152602001908152602001600020819055508073ffffffffffffffffffffffffffffffffffffffff167f83b05b6735acd4b85e3bded8e72c851d1a87718f81e3c8e6f0c9d9a2baa88e4660405160405180910390a250565b6111ea6111e36115f1565b8383611761565b5050565b60008173ffffffffffffffffffffffffffffffffffffffff1661120f610f35565b73ffffffffffffffffffffffffffffffffffffffff160361123357600190506112ce565b600d60008373ffffffffffffffffffffffffffffffffffffffff1673ffffffffffffffffffffffffffffffffffffffff16815260200190815260200160002060009054906101000a900460ff1680156112cb57506000600e60008473ffffffffffffffffffffffffffffffffffffffff1673ffffffffffffffffffffffffffffffffffffffff16815260200190815260200160002054145b90505b919050565b600d6020528060005260406000206000915054906101000a900460ff1681565b6112fe848484610792565b6113126113096115f1565b858585856118d0565b50505050565b606061132382611a81565b9050919050565b6000600560008473ffffffffffffffffffffffffffffffffffffffff1673ffffffffffffffffffffffffffffffffffffffff16815260200190815260200160002060008373ffffffffffffffffffffffffffffffffffffffff1673ffffffffffffffffffffffffffffffffffffffff16815260200190815260200160002060009054906101000a900460ff16905092915050565b6113c661156a565b600073ffffffffffffffffffffffffffffffffffffffff168173ffffffffffffffffffffffffffffffffffffffff16036114385760006040517f1e4fbdf700000000000000000000000000000000000000000000000000000000815260040161142f9190612c8b565b60405180910390fd5b6114418161169b565b50565b6000634906490660e01b7bffffffffffffffffffffffffffffffffffffffffffffffffffffffff1916827bffffffffffffffffffffffffffffffffffffffffffffffffffffffff1916148061149e575061149d82611b94565b5b9050919050565b6000806114b183611c0e565b9050600073ffffffffffffffffffffffffffffffffffffffff168173ffffffffffffffffffffffffffffffffffffffff160361152457826040517f7e27328900000000000000000000000000000000000000000000000000000000815260040161151b9190612d4e565b60405180910390fd5b80915050919050565b60006004600083815260200190815260200160002060009054906101000a900473ffffffffffffffffffffffffffffffffffffffff169050919050565b6115726115f1565b73ffffffffffffffffffffffffffffffffffffffff16611590610f35565b73ffffffffffffffffffffffffffffffffffffffff16146115ef576115b36115f1565b6040517f118cdaa70000000000000000000000000000000000000000000000000000000081526004016115e69190612c8b565b60405180910390fd5b565b600033905090565b6116068383836001611c4b565b505050565b6000611618848484611e10565b90509392505050565b61163b828260405180602001604052806000815250611f2d565b5050565b80600a6000848152602001908152602001600020908161165f919061359a565b507ff8e1a15aba9398e019f0b49df1a4fde98ee17ae345cb5f6b5e2c27f5033e8ce78260405161168f9190612d4e565b60405180910390a15050565b6000600b60009054906101000a900473ffffffffffffffffffffffffffffffffffffffff16905081600b60006101000a81548173ffffffffffffffffffffffffffffffffffffffff021916908373ffffffffffffffffffffffffffffffffffffffff1602179055508173ffffffffffffffffffffffffffffffffffffffff168173ffffffffffffffffffffffffffffffffffffffff167f8be0079c531659141344cd1fd0a4f28419497f9722a3daafe3b4186f6b6457e060405160405180910390a35050565b600073ffffffffffffffffffffffffffffffffffffffff168273ffffffffffffffffffffffffffffffffffffffff16036117d257816040517f5b08ba180000000000000000000000000000000000000000000000000000000081526004016117c99190612c8b565b60405180910390fd5b80600560008573ffffffffffffffffffffffffffffffffffffffff1673ffffffffffffffffffffffffffffffffffffffff16815260200190815260200160002060008473ffffffffffffffffffffffffffffffffffffffff1673ffffffffffffffffffffffffffffffffffffffff16815260200190815260200160002060006101000a81548160ff0219169083151502179055508173ffffffffffffffffffffffffffffffffffffffff168373ffffffffffffffffffffffffffffffffffffffff167f17307eab39ab6107e8899845ad3d59bd9653f200f220920489ca2b5937696c31836040516118c39190612b1a565b60405180910390a3505050565b60008373ffffffffffffffffffffffffffffffffffffffff163b1115611a7a578273ffffffffffffffffffffffffffffffffffffffff1663150b7a02868685856040518563ffffffff1660e01b815260040161192f94939291906136c1565b6020604051808303816000875af192505050801561196b57506040513d601f19601f820116820180604052508101906119689190613722565b60015b6119ef573d806000811461199b576040519150601f19603f3d011682016040523d82523d6000602084013e6119a0565b606091505b5060008151036119e757836040517f64a0ae920000000000000000000000000000000000000000000000000000000081526004016119de9190612c8b565b60405180910390fd5b805181602001fd5b63150b7a0260e01b7bffffffffffffffffffffffffffffffffffffffffffffffffffffffff1916817bffffffffffffffffffffffffffffffffffffffffffffffffffffffff191614611a7857836040517f64a0ae92000000000000000000000000000000000000000000000000000000008152600401611a6f9190612c8b565b60405180910390fd5b505b5050505050565b6060611a8c826114a5565b506000600a60008481526020019081526020016000208054611aad9061304f565b80601f0160208091040260200160405190810160405280929190818152602001828054611ad99061304f565b8015611b265780601f10611afb57610100808354040283529160200191611b26565b820191906000526020600020905b815481529060010190602001808311611b0957829003601f168201915b505050505090506000611b37611f51565b90506000815103611b4c578192505050611b8f565b600082511115611b81578082604051602001611b6992919061378b565b60405160208183030381529060405292505050611b8f565b611b8a84611f68565b925050505b919050565b60007f780e9d63000000000000000000000000000000000000000000000000000000007bffffffffffffffffffffffffffffffffffffffffffffffffffffffff1916827bffffffffffffffffffffffffffffffffffffffffffffffffffffffff19161480611c075750611c0682611fd1565b5b9050919050565b60006002600083815260200190815260200160002060009054906101000a900473ffffffffffffffffffffffffffffffffffffffff169050919050565b8080611c845750600073ffffffffffffffffffffffffffffffffffffffff168273ffffffffffffffffffffffffffffffffffffffff1614155b15611db8576000611c94846114a5565b9050600073ffffffffffffffffffffffffffffffffffffffff168373ffffffffffffffffffffffffffffffffffffffff1614158015611cff57508273ffffffffffffffffffffffffffffffffffffffff168173ffffffffffffffffffffffffffffffffffffffff1614155b8015611d125750611d10818461132a565b155b15611d5457826040517fa9fbf51f000000000000000000000000000000000000000000000000000000008152600401611d4b9190612c8b565b60405180910390fd5b8115611db657838573ffffffffffffffffffffffffffffffffffffffff168273ffffffffffffffffffffffffffffffffffffffff167f8c5be1e5ebec7d5bd14f71427d1e84f3dd0314c0f7b2291e5b200ac8c7c3b92560405160405180910390a45b505b836004600085815260200190815260200160002060006101000a81548173ffffffffffffffffffffffffffffffffffffffff021916908373ffffffffffffffffffffffffffffffffffffffff16021790555050505050565b600080611e1e8585856120b3565b9050600073ffffffffffffffffffffffffffffffffffffffff168173ffffffffffffffffffffffffffffffffffffffff1603611e6257611e5d846122cd565b611ea1565b8473ffffffffffffffffffffffffffffffffffffffff168173ffffffffffffffffffffffffffffffffffffffff1614611ea057611e9f8185612316565b5b5b600073ffffffffffffffffffffffffffffffffffffffff168573ffffffffffffffffffffffffffffffffffffffff1603611ee357611ede84612401565b611f22565b8473ffffffffffffffffffffffffffffffffffffffff168173ffffffffffffffffffffffffffffffffffffffff1614611f2157611f2085856124d2565b5b5b809150509392505050565b611f37838361255d565b611f4c611f426115f1565b60008585856118d0565b505050565b606060405180602001604052806000815250905090565b6060611f73826114a5565b506000611f7e611f51565b90506000815111611f9e5760405180602001604052806000815250611fc9565b80611fa884612656565b604051602001611fb992919061378b565b6040516020818303038152906040525b915050919050565b60007f80ac58cd000000000000000000000000000000000000000000000000000000007bffffffffffffffffffffffffffffffffffffffffffffffffffffffff1916827bffffffffffffffffffffffffffffffffffffffffffffffffffffffff1916148061209c57507f5b5e139f000000000000000000000000000000000000000000000000000000007bffffffffffffffffffffffffffffffffffffffffffffffffffffffff1916827bffffffffffffffffffffffffffffffffffffffffffffffffffffffff1916145b806120ac57506120ab82612724565b5b9050919050565b6000806120bf84611c0e565b9050600073ffffffffffffffffffffffffffffffffffffffff168373ffffffffffffffffffffffffffffffffffffffff16146121015761210081848661278e565b5b600073ffffffffffffffffffffffffffffffffffffffff168173ffffffffffffffffffffffffffffffffffffffff161461219257612143600085600080611c4b565b6001600360008373ffffffffffffffffffffffffffffffffffffffff1673ffffffffffffffffffffffffffffffffffffffff168152602001908152602001600020600082825403925050819055505b600073ffffffffffffffffffffffffffffffffffffffff168573ffffffffffffffffffffffffffffffffffffffff1614612215576001600360008773ffffffffffffffffffffffffffffffffffffffff1673ffffffffffffffffffffffffffffffffffffffff168152602001908152602001600020600082825401925050819055505b846002600086815260200190815260200160002060006101000a81548173ffffffffffffffffffffffffffffffffffffffff021916908373ffffffffffffffffffffffffffffffffffffffff160217905550838573ffffffffffffffffffffffffffffffffffffffff168273ffffffffffffffffffffffffffffffffffffffff167fddf252ad1be2c89b69c2b068fc378daa952ba7f163c4a11628f55a4df523b3ef60405160405180910390a4809150509392505050565b6008805490506009600083815260200190815260200160002081905550600881908060018154018082558091505060019003906000526020600020016000909190919091505550565b600061232183610e67565b90506000600760008481526020019081526020016000205490506000600660008673ffffffffffffffffffffffffffffffffffffffff1673ffffffffffffffffffffffffffffffffffffffff16815260200190815260200160002090508282146123cd5760008160008581526020019081526020016000205490508082600085815260200190815260200160002081905550826007600083815260200190815260200160002081905550505b6007600085815260200190815260200160002060009055806000848152602001908152602001600020600090555050505050565b6000600160088054905061241591906137af565b9050600060096000848152602001908152602001600020549050600060088381548110612445576124446132e7565b5b906000526020600020015490508060088381548110612467576124666132e7565b5b9060005260206000200181905550816009600083815260200190815260200160002081905550600960008581526020019081526020016000206000905560088054806124b6576124b56137e3565b5b6001900381819060005260206000200160009055905550505050565b600060016124df84610e67565b6124e991906137af565b905081600660008573ffffffffffffffffffffffffffffffffffffffff1673ffffffffffffffffffffffffffffffffffffffff168152602001908152602001600020600083815260200190815260200160002081905550806007600084815260200190815260200160002081905550505050565b600073ffffffffffffffffffffffffffffffffffffffff168273ffffffffffffffffffffffffffffffffffffffff16036125cf5760006040517f64a0ae920000000000000000000000000000000000000000000000000000000081526004016125c69190612c8b565b60405180910390fd5b60006125dd8383600061160b565b9050600073ffffffffffffffffffffffffffffffffffffffff168173ffffffffffffffffffffffffffffffffffffffff16146126515760006040517f73c6ac6e0000000000000000000000000000000000000000000000000000000081526004016126489190612c8b565b60405180910390fd5b505050565b60606000600161266584612852565b01905060008167ffffffffffffffff81111561268457612683612e32565b5b6040519080825280601f01601f1916602001820160405280156126b65781602001600182028036833780820191505090505b509050600082602001820190505b600115612719578080600190039150507f3031323334353637383961626364656600000000000000000000000000000000600a86061a8153600a858161270d5761270c613812565b5b049450600085036126c4575b819350505050919050565b60007f01ffc9a7000000000000000000000000000000000000000000000000000000007bffffffffffffffffffffffffffffffffffffffffffffffffffffffff1916827bffffffffffffffffffffffffffffffffffffffffffffffffffffffff1916149050919050565b6127998383836129a5565b61284d57600073ffffffffffffffffffffffffffffffffffffffff168373ffffffffffffffffffffffffffffffffffffffff160361280e57806040517f7e2732890000000000000000000000000000000000000000000000000000000081526004016128059190612d4e565b60405180910390fd5b81816040517f177e802f000000000000000000000000000000000000000000000000000000008152600401612844929190613149565b60405180910390fd5b505050565b600080600090507a184f03e93ff9f4daa797ed6e38ed64bf6a1f01000000000000000083106128b0577a184f03e93ff9f4daa797ed6e38ed64bf6a1f01000000000000000083816128a6576128a5613812565b5b0492506040810190505b6d04ee2d6d415b85acef810000000083106128ed576d04ee2d6d415b85acef810000000083816128e3576128e2613812565b5b0492506020810190505b662386f26fc10000831061291c57662386f26fc10000838161291257612911613812565b5b0492506010810190505b6305f5e1008310612945576305f5e100838161293b5761293a613812565b5b0492506008810190505b612710831061296a5761271083816129605761295f613812565b5b0492506004810190505b6064831061298d576064838161298357612982613812565b5b0492506002810190505b600a831061299c576001810190505b80915050919050565b60008073ffffffffffffffffffffffffffffffffffffffff168373ffffffffffffffffffffffffffffffffffffffff1614158015612a5d57508273ffffffffffffffffffffffffffffffffffffffff168473ffffffffffffffffffffffffffffffffffffffff161480612a1e5750612a1d848461132a565b5b80612a5c57508273ffffffffffffffffffffffffffffffffffffffff16612a448361152d565b73ffffffffffffffffffffffffffffffffffffffff16145b5b90509392505050565b6000604051905090565b600080fd5b600080fd5b60007fffffffff0000000000000000000000000000000000000000000000000000000082169050919050565b612aaf81612a7a565b8114612aba57600080fd5b50565b600081359050612acc81612aa6565b92915050565b600060208284031215612ae857612ae7612a70565b5b6000612af684828501612abd565b91505092915050565b60008115159050919050565b612b1481612aff565b82525050565b6000602082019050612b2f6000830184612b0b565b92915050565b600081519050919050565b600082825260208201905092915050565b60005b83811015612b6f578082015181840152602081019050612b54565b60008484015250505050565b6000601f19601f8301169050919050565b6000612b9782612b35565b612ba18185612b40565b9350612bb1818560208601612b51565b612bba81612b7b565b840191505092915050565b60006020820190508181036000830152612bdf8184612b8c565b905092915050565b6000819050919050565b612bfa81612be7565b8114612c0557600080fd5b50565b600081359050612c1781612bf1565b92915050565b600060208284031215612c3357612c32612a70565b5b6000612c4184828501612c08565b91505092915050565b600073ffffffffffffffffffffffffffffffffffffffff82169050919050565b6000612c7582612c4a565b9050919050565b612c8581612c6a565b82525050565b6000602082019050612ca06000830184612c7c565b92915050565b612caf81612c6a565b8114612cba57600080fd5b50565b600081359050612ccc81612ca6565b92915050565b600060208284031215612ce857612ce7612a70565b5b6000612cf684828501612cbd565b91505092915050565b60008060408385031215612d1657612d15612a70565b5b6000612d2485828601612cbd565b9250506020612d3585828601612c08565b9150509250929050565b612d4881612be7565b82525050565b6000602082019050612d636000830184612d3f565b92915050565b600080600060608486031215612d8257612d81612a70565b5b6000612d9086828701612cbd565b9350506020612da186828701612cbd565b9250506040612db286828701612c08565b9150509250925092565b612dc581612aff565b8114612dd057600080fd5b50565b600081359050612de281612dbc565b92915050565b60008060408385031215612dff57612dfe612a70565b5b6000612e0d85828601612cbd565b9250506020612e1e85828601612dd3565b9150509250929050565b600080fd5b600080fd5b7f4e487b7100000000000000000000000000000000000000000000000000000000600052604160045260246000fd5b612e6a82612b7b565b810181811067ffffffffffffffff82111715612e8957612e88612e32565b5b80604052505050565b6000612e9c612a66565b9050612ea88282612e61565b919050565b600067ffffffffffffffff821115612ec857612ec7612e32565b5b612ed182612b7b565b9050602081019050919050565b82818337600083830152505050565b6000612f00612efb84612ead565b612e92565b905082815260208101848484011115612f1c57612f1b612e2d565b5b612f27848285612ede565b509392505050565b600082601f830112612f4457612f43612e28565b5b8135612f54848260208601612eed565b91505092915050565b60008060008060808587031215612f7757612f76612a70565b5b6000612f8587828801612cbd565b9450506020612f9687828801612cbd565b9350506040612fa787828801612c08565b925050606085013567ffffffffffffffff811115612fc857612fc7612a75565b5b612fd487828801612f2f565b91505092959194509250565b60008060408385031215612ff757612ff6612a70565b5b600061300585828601612cbd565b925050602061301685828601612cbd565b9150509250929050565b7f4e487b7100000000000000000000000000000000000000000000000000000000600052602260045260246000fd5b6000600282049050600182168061306757607f821691505b60208210810361307a57613079613020565b5b50919050565b7f41646472657373206973206e6f7420616e20617574686f72697a6564206d696e60008201527f7465720000000000000000000000000000000000000000000000000000000000602082015250565b60006130dc602383612b40565b91506130e782613080565b604082019050919050565b6000602082019050818103600083015261310b816130cf565b9050919050565b60006060820190506131276000830186612c7c565b6131346020830185612d3f565b6131416040830184612c7c565b949350505050565b600060408201905061315e6000830185612c7c565b61316b6020830184612d3f565b9392505050565b7f4d696e746572206e6f7420617574686f72697a65640000000000000000000000600082015250565b60006131a8601583612b40565b91506131b382613172565b602082019050919050565b600060208201905081810360008301526131d78161319b565b9050919050565b7f4e6f7420617574686f72697a656420746f206d696e74206f72206c696d69742060008201527f7265616368656400000000000000000000000000000000000000000000000000602082015250565b600061323a602783612b40565b9150613245826131de565b604082019050919050565b600060208201905081810360008301526132698161322d565b9050919050565b7f4e487b7100000000000000000000000000000000000000000000000000000000600052601160045260246000fd5b60006132aa82612be7565b91507fffffffffffffffffffffffffffffffffffffffffffffffffffffffffffffffff82036132dc576132db613270565b5b600182019050919050565b7f4e487b7100000000000000000000000000000000000000000000000000000000600052603260045260246000fd5b7f496e76616c6964206d696e746572206164647265737300000000000000000000600082015250565b600061334c601683612b40565b915061335782613316565b602082019050919050565b6000602082019050818103600083015261337b8161333f565b9050919050565b7f4d696e74657220616c726561647920617574686f72697a656400000000000000600082015250565b60006133b8601983612b40565b91506133c382613382565b602082019050919050565b600060208201905081810360008301526133e7816133ab565b9050919050565b60008190508160005260206000209050919050565b60006020601f8301049050919050565b600082821b905092915050565b6000600883026134507fffffffffffffffffffffffffffffffffffffffffffffffffffffffffffffffff82613413565b61345a8683613413565b95508019841693508086168417925050509392505050565b6000819050919050565b600061349761349261348d84612be7565b613472565b612be7565b9050919050565b6000819050919050565b6134b18361347c565b6134c56134bd8261349e565b848454613420565b825550505050565b600090565b6134da6134cd565b6134e58184846134a8565b505050565b5b81811015613509576134fe6000826134d2565b6001810190506134eb565b5050565b601f82111561354e5761351f816133ee565b61352884613403565b81016020851015613537578190505b61354b61354385613403565b8301826134ea565b50505b505050565b600082821c905092915050565b600061357160001984600802613553565b1980831691505092915050565b600061358a8383613560565b9150826002028217905092915050565b6135a382612b35565b67ffffffffffffffff8111156135bc576135bb612e32565b5b6135c6825461304f565b6135d182828561350d565b600060209050601f83116001811461360457600084156135f2578287015190505b6135fc858261357e565b865550613664565b601f198416613612866133ee565b60005b8281101561363a57848901518255600182019150602085019450602081019050613615565b868310156136575784890151613653601f891682613560565b8355505b6001600288020188555050505b505050505050565b600081519050919050565b600082825260208201905092915050565b60006136938261366c565b61369d8185613677565b93506136ad818560208601612b51565b6136b681612b7b565b840191505092915050565b60006080820190506136d66000830187612c7c565b6136e36020830186612c7c565b6136f06040830185612d3f565b81810360608301526137028184613688565b905095945050505050565b60008151905061371c81612aa6565b92915050565b60006020828403121561373857613737612a70565b5b60006137468482850161370d565b91505092915050565b600081905092915050565b600061376582612b35565b61376f818561374f565b935061377f818560208601612b51565b80840191505092915050565b6000613797828561375a565b91506137a3828461375a565b91508190509392505050565b60006137ba82612be7565b91506137c583612be7565b92508282039050818111156137dd576137dc613270565b5b92915050565b7f4e487b7100000000000000000000000000000000000000000000000000000000600052603160045260246000fd5b7f4e487b7100000000000000000000000000000000000000000000000000000000600052601260045260246000fdfe697066733a2f2f516d6174694c5a6f6a37505a7755336763714d7741684e35516d4e31476f4275786a5257626b394478515a746642a26469706673582212205681bf57cb83358f07e2738f1137d3d119c7a24203a1217fa28740db485f95ab64736f6c63430008140033",
  "linkReferences": {},
  "deployedLinkReferences": {}
}