{
  "_format": "hh-sol-artifact-1",
  "contractName": "NFTToken",
  "sourceName": "contracts/NFTToken.sol",
  "abi": [
    {
      "inputs": [
        {
          "internalType": "string",
          "name": "_name",
          "type": "string"
        },
        {
          "internalType": "string",
          "name": "_symbol",
          "type": "string"
        }
      ],
      "stateMutability": "nonpayable",
      "type": "constructor"
    },
    {
      "inputs": [],
      "name": "ERC721EnumerableForbiddenBatchMint",
      "type": "error"
    },
    {
      "inputs": [
        {
          "internalType": "address",
          "name": "sender",
          "type": "address"
        },
        {
          "internalType": "uint256",
          "name": "tokenId",
          "type": "uint256"
        },
        {
          "internalType": "address",
          "name": "owner",
          "type": "address"
        }
      ],
      "name": "ERC721IncorrectOwner",
      "type": "error"
    },
    {
      "inputs": [
        {
          "internalType": "address",
          "name": "operator",
          "type": "address"
        },
        {
          "internalType": "uint256",
          "name": "tokenId",
          "type": "uint256"
        }
      ],
      "name": "ERC721InsufficientApproval",
      "type": "error"
    },
    {
      "inputs": [
        {
          "internalType": "address",
          "name": "approver",
          "type": "address"
        }
      ],
      "name": "ERC721InvalidApprover",
      "type": "error"
    },
    {
      "inputs": [
        {
          "internalType": "address",
          "name": "operator",
          "type": "address"
        }
      ],
      "name": "ERC721InvalidOperator",
      "type": "error"
    },
    {
      "inputs": [
        {
          "internalType": "address",
          "name": "owner",
          "type": "address"
        }
      ],
      "name": "ERC721InvalidOwner",
      "type": "error"
    },
    {
      "inputs": [
        {
          "internalType": "address",
          "name": "receiver",
          "type": "address"
        }
      ],
      "name": "ERC721InvalidReceiver",
      "type": "error"
    },
    {
      "inputs": [
        {
          "internalType": "address",
          "name": "sender",
          "type": "address"
        }
      ],
      "name": "ERC721InvalidSender",
      "type": "error"
    },
    {
      "inputs": [
        {
          "internalType": "uint256",
          "name": "tokenId",
          "type": "uint256"
        }
      ],
      "name": "ERC721NonexistentToken",
      "type": "error"
    },
    {
      "inputs": [
        {
          "internalType": "address",
          "name": "owner",
          "type": "address"
        },
        {
          "internalType": "uint256",
          "name": "index",
          "type": "uint256"
        }
      ],
      "name": "ERC721OutOfBoundsIndex",
      "type": "error"
    },
    {
      "inputs": [
        {
          "internalType": "address",
          "name": "owner",
          "type": "address"
        }
      ],
      "name": "OwnableInvalidOwner",
      "type": "error"
    },
    {
      "inputs": [
        {
          "internalType": "address",
          "name": "account",
          "type": "address"
        }
      ],
      "name": "OwnableUnauthorizedAccount",
      "type": "error"
    },
    {
      "anonymous": false,
      "inputs": [
        {
          "indexed": true,
          "internalType": "address",
          "name": "owner",
          "type": "address"
        },
        {
          "indexed": true,
          "internalType": "address",
          "name": "approved",
          "type": "address"
        },
        {
          "indexed": true,
          "internalType": "uint256",
          "name": "tokenId",
          "type": "uint256"
        }
      ],
      "name": "Approval",
      "type": "event"
    },
    {
      "anonymous": false,
      "inputs": [
        {
          "indexed": true,
          "internalType": "address",
          "name": "owner",
          "type": "address"
        },
        {
          "indexed": true,
          "internalType": "address",
          "name": "operator",
          "type": "address"
        },
        {
          "indexed": false,
          "internalType": "bool",
          "name": "approved",
          "type": "bool"
        }
      ],
      "name": "ApprovalForAll",
      "type": "event"
    },
    {
      "anonymous": false,
      "inputs": [
        {
          "indexed": false,
          "internalType": "uint256",
          "name": "_fromTokenId",
          "type": "uint256"
        },
        {
          "indexed": false,
          "internalType": "uint256",
          "name": "_toTokenId",
          "type": "uint256"
        }
      ],
      "name": "BatchMetadataUpdate",
      "type": "event"
    },
    {
      "anonymous": false,
      "inputs": [
        {
          "indexed": false,
          "internalType": "uint256",
          "name": "_tokenId",
          "type": "uint256"
        }
      ],
      "name": "MetadataUpdate",
      "type": "event"
    },
    {
      "anonymous": false,
      "inputs": [
        {
          "indexed": true,
          "internalType": "address",
          "name": "minter",
          "type": "address"
        }
      ],
      "name": "MinterAuthorized",
      "type": "event"
    },
    {
      "anonymous": false,
      "inputs": [
        {
          "indexed": true,
          "internalType": "address",
          "name": "minter",
          "type": "address"
        }
      ],
      "name": "MinterRevoked",
      "type": "event"
    },
    {
      "anonymous": false,
      "inputs": [
        {
          "indexed": true,
          "internalType": "address",
          "name": "previousOwner",
          "type": "address"
        },
        {
          "indexed": true,
          "internalType": "address",
          "name": "newOwner",
          "type": "address"
        }
      ],
      "name": "OwnershipTransferred",
      "type": "event"
    },
    {
      "anonymous": false,
      "inputs": [
        {
          "indexed": true,
          "internalType": "address",
          "name": "minter",
          "type": "address"
        },
        {
          "indexed": true,
          "internalType": "address",
          "name": "to",
          "type": "address"
        },
        {
          "indexed": false,
          "internalType": "uint256",
          "name": "tokenId",
          "type": "uint256"
        }
      ],
      "name": "TokenMinted",
      "type": "event"
    },
    {
      "anonymous": false,
      "inputs": [
        {
          "indexed": true,
          "internalType": "address",
          "name": "from",
          "type": "address"
        },
        {
          "indexed": true,
          "internalType": "address",
          "name": "to",
          "type": "address"
        },
        {
          "indexed": true,
          "internalType": "uint256",
          "name": "tokenId",
          "type": "uint256"
        }
      ],
      "name": "Transfer",
      "type": "event"
    },
    {
      "inputs": [
        {
          "internalType": "address",
          "name": "minter",
          "type": "address"
        }
      ],
      "name": "addMinter",
      "outputs": [],
      "stateMutability": "nonpayable",
      "type": "function"
    },
    {
      "inputs": [
        {
          "internalType": "address",
          "name": "to",
          "type": "address"
        },
        {
          "internalType": "uint256",
          "name": "tokenId",
          "type": "uint256"
        }
      ],
      "name": "approve",
      "outputs": [],
      "stateMutability": "nonpayable",
      "type": "function"
    },
    {
      "inputs": [
        {
          "internalType": "address",
          "name": "",
          "type": "address"
        }
      ],
      "name": "authorizedMinters",
      "outputs": [
        {
          "internalType": "bool",
          "name": "",
          "type": "bool"
        }
      ],
      "stateMutability": "view",
      "type": "function"
    },
    {
      "inputs": [
        {
          "internalType": "address",
          "name": "owner",
          "type": "address"
        }
      ],
      "name": "balanceOf",
      "outputs": [
        {
          "internalType": "uint256",
          "name": "",
          "type": "uint256"
        }
      ],
      "stateMutability": "view",
      "type": "function"
    },
    {
      "inputs": [
        {
          "internalType": "uint256",
          "name": "tokenId",
          "type": "uint256"
        }
      ],
      "name": "burn",
      "outputs": [],
      "stateMutability": "nonpayable",
      "type": "function"
    },
    {
      "inputs": [
        {
          "internalType": "uint256",
          "name": "tokenId",
          "type": "uint256"
        }
      ],
      "name": "getApproved",
      "outputs": [
        {
          "internalType": "address",
          "name": "",
          "type": "address"
        }
      ],
      "stateMutability": "view",
      "type": "function"
    },
    {
      "inputs": [
        {
          "internalType": "address",
          "name": "minter",
          "type": "address"
        }
      ],
      "name": "getMinterMintCount",
      "outputs": [
        {
          "internalType": "uint256",
          "name": "",
          "type": "uint256"
        }
      ],
      "stateMutability": "view",
      "type": "function"
    },
    {
      "inputs": [
        {
          "internalType": "address",
          "name": "owner",
          "type": "address"
        },
        {
          "internalType": "address",
          "name": "operator",
          "type": "address"
        }
      ],
      "name": "isApprovedForAll",
      "outputs": [
        {
          "internalType": "bool",
          "name": "",
          "type": "bool"
        }
      ],
      "stateMutability": "view",
      "type": "function"
    },
    {
      "inputs": [
        {
          "internalType": "address",
          "name": "account",
          "type": "address"
        }
      ],
      "name": "isMinter",
      "outputs": [
        {
          "internalType": "bool",
          "name": "",
          "type": "bool"
        }
      ],
      "stateMutability": "view",
      "type": "function"
    },
    {
      "inputs": [
        {
          "internalType": "address",
          "name": "",
          "type": "address"
        }
      ],
      "name": "minterMintCount",
      "outputs": [
        {
          "internalType": "uint256",
          "name": "",
          "type": "uint256"
        }
      ],
      "stateMutability": "view",
      "type": "function"
    },
    {
      "inputs": [],
      "name": "name",
      "outputs": [
        {
          "internalType": "string",
          "name": "",
          "type": "string"
        }
      ],
      "stateMutability": "view",
      "type": "function"
    },
    {
      "inputs": [],
      "name": "owner",
      "outputs": [
        {
          "internalType": "address",
          "name": "",
          "type": "address"
        }
      ],
      "stateMutability": "view",
      "type": "function"
    },
    {
      "inputs": [
        {
          "internalType": "uint256",
          "name": "tokenId",
          "type": "uint256"
        }
      ],
      "name": "ownerOf",
      "outputs": [
        {
          "internalType": "address",
          "name": "",
          "type": "address"
        }
      ],
      "stateMutability": "view",
      "type": "function"
    },
    {
      "inputs": [
        {
          "internalType": "address",
          "name": "minter",
          "type": "address"
        }
      ],
      "name": "removeMinter",
      "outputs": [],
      "stateMutability": "nonpayable",
      "type": "function"
    },
    {
      "inputs": [],
      "name": "renounceOwnership",
      "outputs": [],
      "stateMutability": "nonpayable",
      "type": "function"
    },
    {
      "inputs": [
        {
          "internalType": "address",
          "name": "minter",
          "type": "address"
        }
      ],
      "name": "resetMinterMintCount",
      "outputs": [],
      "stateMutability": "nonpayable",
      "type": "function"
    },
    {
      "inputs": [
        {
          "internalType": "address",
          "name": "to",
          "type": "address"
        }
      ],
      "name": "safeMint",
      "outputs": [
        {
          "internalType": "uint256",
          "name": "",
          "type": "uint256"
        }
      ],
      "stateMutability": "nonpayable",
      "type": "function"
    },
    {
      "inputs": [
        {
          "internalType": "address",
          "name": "from",
          "type": "address"
        },
        {
          "internalType": "address",
          "name": "to",
          "type": "address"
        },
        {
          "internalType": "uint256",
          "name": "tokenId",
          "type": "uint256"
        }
      ],
      "name": "safeTransferFrom",
      "outputs": [],
      "stateMutability": "nonpayable",
      "type": "function"
    },
    {
      "inputs": [
        {
          "internalType": "address",
          "name": "from",
          "type": "address"
        },
        {
          "internalType": "address",
          "name": "to",
          "type": "address"
        },
        {
          "internalType": "uint256",
          "name": "tokenId",
          "type": "uint256"
        },
        {
          "internalType": "bytes",
          "name": "data",
          "type": "bytes"
        }
      ],
      "name": "safeTransferFrom",
      "outputs": [],
      "stateMutability": "nonpayable",
      "type": "function"
    },
    {
      "inputs": [
        {
          "internalType": "address",
          "name": "operator",
          "type": "address"
        },
        {
          "internalType": "bool",
          "name": "approved",
          "type": "bool"
        }
      ],
      "name": "setApprovalForAll",
      "outputs": [],
      "stateMutability": "nonpayable",
      "type": "function"
    },
    {
      "inputs": [
        {
          "internalType": "bytes4",
          "name": "interfaceId",
          "type": "bytes4"
        }
      ],
      "name": "supportsInterface",
      "outputs": [
        {
          "internalType": "bool",
          "name": "",
          "type": "bool"
        }
      ],
      "stateMutability": "view",
      "type": "function"
    },
    {
      "inputs": [],
      "name": "symbol",
      "outputs": [
        {
          "internalType": "string",
          "name": "",
          "type": "string"
        }
      ],
      "stateMutability": "view",
      "type": "function"
    },
    {
      "inputs": [
        {
          "internalType": "uint256",
          "name": "index",
          "type": "uint256"
        }
      ],
      "name": "tokenByIndex",
      "outputs": [
        {
          "internalType": "uint256",
          "name": "",
          "type": "uint256"
        }
      ],
      "stateMutability": "view",
      "type": "function"
    },
    {
      "inputs": [
        {
          "internalType": "address",
          "name": "owner",
          "type": "address"
        },
        {
          "internalType": "uint256",
          "name": "index",
          "type": "uint256"
        }
      ],
      "name": "tokenOfOwnerByIndex",
      "outputs": [
        {
          "internalType": "uint256",
          "name": "",
          "type": "uint256"
        }
      ],
      "stateMutability": "view",
      "type": "function"
    },
    {
      "inputs": [
        {
          "internalType": "uint256",
          "name": "tokenId",
          "type": "uint256"
        }
      ],
      "name": "tokenURI",
      "outputs": [
        {
          "internalType": "string",
          "name": "",
          "type": "string"
        }
      ],
      "stateMutability": "view",
      "type": "function"
    },
    {
      "inputs": [],
      "name": "totalSupply",
      "outputs": [
        {
          "internalType": "uint256",
          "name": "",
          "type": "uint256"
        }
      ],
      "stateMutability": "view",
      "type": "function"
    },
    {
      "inputs": [
        {
          "internalType": "address",
          "name": "from",
          "type": "address"
        },
        {
          "internalType": "address",
          "name": "to",
          "type": "address"
        },
        {
          "internalType": "uint256",
          "name": "tokenId",
          "type": "uint256"
        }
      ],
      "name": "transferFrom",
      "outputs": [],
      "stateMutability": "nonpayable",
      "type": "function"
    },
    {
      "inputs": [
        {
          "internalType": "address",
          "name": "newOwner",
          "type": "address"
        }
      ],
      "name": "transferOwnership",
      "outputs": [],
      "stateMutability": "nonpayable",
      "type": "function"
    }
  ],
  "bytecode": "0x60806040523480156200001157600080fd5b506040516200401e3803806200401e833981810160405281019062000037919062000348565b33828281600090816200004b919062000618565b5080600190816200005d919062000618565b505050600073ffffffffffffffffffffffffffffffffffffffff168173ffffffffffffffffffffffffffffffffffffffff1603620000d55760006040517f1e4fbdf7000000000000000000000000000000000000000000000000000000008152600401620000cc919062000744565b60405180910390fd5b620000e681620000ef60201b60201c565b50505062000761565b6000600b60009054906101000a900473ffffffffffffffffffffffffffffffffffffffff16905081600b60006101000a81548173ffffffffffffffffffffffffffffffffffffffff021916908373ffffffffffffffffffffffffffffffffffffffff1602179055508173ffffffffffffffffffffffffffffffffffffffff168173ffffffffffffffffffffffffffffffffffffffff167f8be0079c531659141344cd1fd0a4f28419497f9722a3daafe3b4186f6b6457e060405160405180910390a35050565b6000604051905090565b600080fd5b600080fd5b600080fd5b600080fd5b6000601f19601f8301169050919050565b7f4e487b7100000000000000000000000000000000000000000000000000000000600052604160045260246000fd5b6200021e82620001d3565b810181811067ffffffffffffffff8211171562000240576200023f620001e4565b5b80604052505050565b600062000255620001b5565b905062000263828262000213565b919050565b600067ffffffffffffffff821115620002865762000285620001e4565b5b6200029182620001d3565b9050602081019050919050565b60005b83811015620002be578082015181840152602081019050620002a1565b60008484015250505050565b6000620002e1620002db8462000268565b62000249565b9050828152602081018484840111156200030057620002ff620001ce565b5b6200030d8482856200029e565b509392505050565b600082601f8301126200032d576200032c620001c9565b5b81516200033f848260208601620002ca565b91505092915050565b60008060408385031215620003625762000361620001bf565b5b600083015167ffffffffffffffff811115620003835762000382620001c4565b5b620003918582860162000315565b925050602083015167ffffffffffffffff811115620003b557620003b4620001c4565b5b620003c38582860162000315565b9150509250929050565b600081519050919050565b7f4e487b7100000000000000000000000000000000000000000000000000000000600052602260045260246000fd5b600060028204905060018216806200042057607f821691505b602082108103620004365762000435620003d8565b5b50919050565b60008190508160005260206000209050919050565b60006020601f8301049050919050565b600082821b905092915050565b600060088302620004a07fffffffffffffffffffffffffffffffffffffffffffffffffffffffffffffffff8262000461565b620004ac868362000461565b95508019841693508086168417925050509392505050565b6000819050919050565b6000819050919050565b6000620004f9620004f3620004ed84620004c4565b620004ce565b620004c4565b9050919050565b6000819050919050565b6200051583620004d8565b6200052d620005248262000500565b8484546200046e565b825550505050565b600090565b6200054462000535565b620005518184846200050a565b505050565b5b8181101562000579576200056d6000826200053a565b60018101905062000557565b5050565b601f821115620005c85762000592816200043c565b6200059d8462000451565b81016020851015620005ad578190505b620005c5620005bc8562000451565b83018262000556565b50505b505050565b600082821c905092915050565b6000620005ed60001984600802620005cd565b1980831691505092915050565b6000620006088383620005da565b9150826002028217905092915050565b6200062382620003cd565b67ffffffffffffffff8111156200063f576200063e620001e4565b5b6200064b825462000407565b620006588282856200057d565b600060209050601f8311600181146200069057600084156200067b578287015190505b620006878582620005fa565b865550620006f7565b601f198416620006a0866200043c565b60005b82811015620006ca57848901518255600182019150602085019450602081019050620006a3565b86831015620006ea5784890151620006e6601f891682620005da565b8355505b6001600288020188555050505b505050505050565b600073ffffffffffffffffffffffffffffffffffffffff82169050919050565b60006200072c82620006ff565b9050919050565b6200073e816200071f565b82525050565b60006020820190506200075b600083018462000733565b92915050565b6138ad80620007716000396000f3fe608060405234801561001057600080fd5b50600436106101c45760003560e01c80634f6ccce7116100f9578063a22cb46511610097578063b88d4fde11610071578063b88d4fde1461053b578063c87b56dd14610557578063e985e9c514610587578063f2fde38b146105b7576101c4565b8063a22cb465146104bf578063aa271e1a146104db578063aa2fe91b1461050b576101c4565b8063715018a6116100d3578063715018a61461045d5780638da5cb5b1461046757806395d89b4114610485578063983b2d56146104a3576101c4565b80634f6ccce7146103cd5780636352211e146103fd57806370a082311461042d576101c4565b80632f745c591161016657806340d097c31161014057806340d097c31461033557806342842e0e1461036557806342966c68146103815780634446d3f51461039d576101c4565b80632f745c59146102b95780633092afd5146102e9578063377727f814610305576101c4565b806309146824116101a25780630914682414610247578063095ea7b31461026357806318160ddd1461027f57806323b872dd1461029d576101c4565b806301ffc9a7146101c957806306fdde03146101f9578063081812fc14610217575b600080fd5b6101e360048036038101906101de9190612ad3565b6105d3565b6040516101f09190612b1b565b60405180910390f35b6102016105e5565b60405161020e9190612bc6565b60405180910390f35b610231600480360381019061022c9190612c1e565b610677565b60405161023e9190612c8c565b60405180910390f35b610261600480360381019061025c9190612cd3565b610693565b005b61027d60048036038101906102789190612d00565b61076f565b005b610287610785565b6040516102949190612d4f565b60405180910390f35b6102b760048036038101906102b29190612d6a565b610792565b005b6102d360048036038101906102ce9190612d00565b610894565b6040516102e09190612d4f565b60405180910390f35b61030360048036038101906102fe9190612cd3565b61093d565b005b61031f600480360381019061031a9190612cd3565b610ab2565b60405161032c9190612d4f565b60405180910390f35b61034f600480360381019061034a9190612cd3565b610afb565b60405161035c9190612d4f565b60405180910390f35b61037f600480360381019061037a9190612d6a565b610d91565b005b61039b60048036038101906103969190612c1e565b610db1565b005b6103b760048036038101906103b29190612cd3565b610dc8565b6040516103c49190612d4f565b60405180910390f35b6103e760048036038101906103e29190612c1e565b610de0565b6040516103f49190612d4f565b60405180910390f35b61041760048036038101906104129190612c1e565b610e56565b6040516104249190612c8c565b60405180910390f35b61044760048036038101906104429190612cd3565b610e68565b6040516104549190612d4f565b60405180910390f35b610465610f22565b005b61046f610f36565b60405161047c9190612c8c565b60405180910390f35b61048d610f60565b60405161049a9190612bc6565b60405180910390f35b6104bd60048036038101906104b89190612cd3565b610ff2565b005b6104d960048036038101906104d49190612de9565b6111d9565b005b6104f560048036038101906104f09190612cd3565b6111ef565b6040516105029190612b1b565b60405180910390f35b61052560048036038101906105209190612cd3565b6112d4565b6040516105329190612b1b565b60405180910390f35b61055560048036038101906105509190612f5e565b6112f4565b005b610571600480360381019061056c9190612c1e565b611319565b60405161057e9190612bc6565b60405180910390f35b6105a1600480360381019061059c9190612fe1565b61132b565b6040516105ae9190612b1b565b60405180910390f35b6105d160048036038101906105cc9190612cd3565b6113bf565b005b60006105de82611445565b9050919050565b6060600080546105f490613050565b80601f016020809104026020016040519081016040528092919081815260200182805461062090613050565b801561066d5780601f106106425761010080835404028352916020019161066d565b820191906000526020600020905b81548152906001019060200180831161065057829003601f168201915b5050505050905090565b6000610682826114a6565b5061068c8261152e565b9050919050565b61069b61156b565b600d60008273ffffffffffffffffffffffffffffffffffffffff1673ffffffffffffffffffffffffffffffffffffffff16815260200190815260200160002060009054906101000a900460ff16610727576040517f08c379a000000000000000000000000000000000000000000000000000000000815260040161071e906130f3565b60405180910390fd5b6000600e60008373ffffffffffffffffffffffffffffffffffffffff1673ffffffffffffffffffffffffffffffffffffffff1681526020019081526020016000208190555050565b610781828261077c6115f2565b6115fa565b5050565b6000600880549050905090565b600073ffffffffffffffffffffffffffffffffffffffff168273ffffffffffffffffffffffffffffffffffffffff16036108045760006040517f64a0ae920000000000000000000000000000000000000000000000000000000081526004016107fb9190612c8c565b60405180910390fd5b600061081883836108136115f2565b61160c565b90508373ffffffffffffffffffffffffffffffffffffffff168173ffffffffffffffffffffffffffffffffffffffff161461088e578382826040517f64283d7b00000000000000000000000000000000000000000000000000000000815260040161088593929190613113565b60405180910390fd5b50505050565b600061089f83610e68565b82106108e45782826040517fa57d13dc0000000000000000000000000000000000000000000000000000000081526004016108db92919061314a565b60405180910390fd5b600660008473ffffffffffffffffffffffffffffffffffffffff1673ffffffffffffffffffffffffffffffffffffffff168152602001908152602001600020600083815260200190815260200160002054905092915050565b61094561156b565b600d60008273ffffffffffffffffffffffffffffffffffffffff1673ffffffffffffffffffffffffffffffffffffffff16815260200190815260200160002060009054906101000a900460ff166109d1576040517f08c379a00000000000000000000000000000000000000000000000000000000081526004016109c8906131bf565b60405180910390fd5b6000600d60008373ffffffffffffffffffffffffffffffffffffffff1673ffffffffffffffffffffffffffffffffffffffff16815260200190815260200160002060006101000a81548160ff021916908315150217905550600e60008273ffffffffffffffffffffffffffffffffffffffff1673ffffffffffffffffffffffffffffffffffffffff168152602001908152602001600020600090558073ffffffffffffffffffffffffffffffffffffffff167f44f4322f8daa225d5f4877ad0f7d3dfba248a774396f3ca99405ed40a044fe8160405160405180910390a250565b6000600e60008373ffffffffffffffffffffffffffffffffffffffff1673ffffffffffffffffffffffffffffffffffffffff168152602001908152602001600020549050919050565b600080610b066115f2565b73ffffffffffffffffffffffffffffffffffffffff16610b24610f36565b73ffffffffffffffffffffffffffffffffffffffff161490506000600d6000610b4b6115f2565b73ffffffffffffffffffffffffffffffffffffffff1673ffffffffffffffffffffffffffffffffffffffff16815260200190815260200160002060009054906101000a900460ff16905060006064600e6000610ba56115f2565b73ffffffffffffffffffffffffffffffffffffffff1673ffffffffffffffffffffffffffffffffffffffff168152602001908152602001600020541090508280610bf55750818015610bf45750805b5b610c34576040517f08c379a0000000000000000000000000000000000000000000000000000000008152600401610c2b90613251565b60405180910390fd5b6000600c6000815480929190610c49906132a0565b919050559050610c598682611622565b610c7b8160405180606001604052806035815260200161384360359139611640565b610c83610f36565b73ffffffffffffffffffffffffffffffffffffffff16610ca16115f2565b73ffffffffffffffffffffffffffffffffffffffff1614610d1957600e6000610cc86115f2565b73ffffffffffffffffffffffffffffffffffffffff1673ffffffffffffffffffffffffffffffffffffffff1681526020019081526020016000206000815480929190610d13906132a0565b91905055505b8573ffffffffffffffffffffffffffffffffffffffff16610d386115f2565b73ffffffffffffffffffffffffffffffffffffffff167fdf1b2b09e9800d31c599375056be9f9e4eb37f078102643600c4e149714efaad83604051610d7d9190612d4f565b60405180910390a380945050505050919050565b610dac838383604051806020016040528060008152506112f4565b505050565b610dc4600082610dbf6115f2565b61160c565b5050565b600e6020528060005260406000206000915090505481565b6000610dea610785565b8210610e30576000826040517fa57d13dc000000000000000000000000000000000000000000000000000000008152600401610e2792919061314a565b60405180910390fd5b60088281548110610e4457610e436132e8565b5b90600052602060002001549050919050565b6000610e61826114a6565b9050919050565b60008073ffffffffffffffffffffffffffffffffffffffff168273ffffffffffffffffffffffffffffffffffffffff1603610edb5760006040517f89c62b64000000000000000000000000000000000000000000000000000000008152600401610ed29190612c8c565b60405180910390fd5b600360008373ffffffffffffffffffffffffffffffffffffffff1673ffffffffffffffffffffffffffffffffffffffff168152602001908152602001600020549050919050565b610f2a61156b565b610f34600061169c565b565b6000600b60009054906101000a900473ffffffffffffffffffffffffffffffffffffffff16905090565b606060018054610f6f90613050565b80601f0160208091040260200160405190810160405280929190818152602001828054610f9b90613050565b8015610fe85780601f10610fbd57610100808354040283529160200191610fe8565b820191906000526020600020905b815481529060010190602001808311610fcb57829003601f168201915b5050505050905090565b610ffa61156b565b600073ffffffffffffffffffffffffffffffffffffffff168173ffffffffffffffffffffffffffffffffffffffff1603611069576040517f08c379a000000000000000000000000000000000000000000000000000000000815260040161106090613363565b60405180910390fd5b600d60008273ffffffffffffffffffffffffffffffffffffffff1673ffffffffffffffffffffffffffffffffffffffff16815260200190815260200160002060009054906101000a900460ff16156110f6576040517f08c379a00000000000000000000000000000000000000000000000000000000081526004016110ed906133cf565b60405180910390fd5b6001600d60008373ffffffffffffffffffffffffffffffffffffffff1673ffffffffffffffffffffffffffffffffffffffff16815260200190815260200160002060006101000a81548160ff0219169083151502179055506000600e60008373ffffffffffffffffffffffffffffffffffffffff1673ffffffffffffffffffffffffffffffffffffffff168152602001908152602001600020819055508073ffffffffffffffffffffffffffffffffffffffff167f83b05b6735acd4b85e3bded8e72c851d1a87718f81e3c8e6f0c9d9a2baa88e4660405160405180910390a250565b6111eb6111e46115f2565b8383611762565b5050565b60008173ffffffffffffffffffffffffffffffffffffffff16611210610f36565b73ffffffffffffffffffffffffffffffffffffffff160361123457600190506112cf565b600d60008373ffffffffffffffffffffffffffffffffffffffff1673ffffffffffffffffffffffffffffffffffffffff16815260200190815260200160002060009054906101000a900460ff1680156112cc57506000600e60008473ffffffffffffffffffffffffffffffffffffffff1673ffffffffffffffffffffffffffffffffffffffff16815260200190815260200160002054145b90505b919050565b600d6020528060005260406000206000915054906101000a900460ff1681565b6112ff848484610792565b61131361130a6115f2565b858585856118d1565b50505050565b606061132482611a82565b9050919050565b6000600560008473ffffffffffffffffffffffffffffffffffffffff1673ffffffffffffffffffffffffffffffffffffffff16815260200190815260200160002060008373ffffffffffffffffffffffffffffffffffffffff1673ffffffffffffffffffffffffffffffffffffffff16815260200190815260200160002060009054906101000a900460ff16905092915050565b6113c761156b565b600073ffffffffffffffffffffffffffffffffffffffff168173ffffffffffffffffffffffffffffffffffffffff16036114395760006040517f1e4fbdf70000000000000000000000000000000000000000000000000000000081526004016114309190612c8c565b60405180910390fd5b6114428161169c565b50565b6000634906490660e01b7bffffffffffffffffffffffffffffffffffffffffffffffffffffffff1916827bffffffffffffffffffffffffffffffffffffffffffffffffffffffff1916148061149f575061149e82611b95565b5b9050919050565b6000806114b283611c0f565b9050600073ffffffffffffffffffffffffffffffffffffffff168173ffffffffffffffffffffffffffffffffffffffff160361152557826040517f7e27328900000000000000000000000000000000000000000000000000000000815260040161151c9190612d4f565b60405180910390fd5b80915050919050565b60006004600083815260200190815260200160002060009054906101000a900473ffffffffffffffffffffffffffffffffffffffff169050919050565b6115736115f2565b73ffffffffffffffffffffffffffffffffffffffff16611591610f36565b73ffffffffffffffffffffffffffffffffffffffff16146115f0576115b46115f2565b6040517f118cdaa70000000000000000000000000000000000000000000000000000000081526004016115e79190612c8c565b60405180910390fd5b565b600033905090565b6116078383836001611c4c565b505050565b6000611619848484611e11565b90509392505050565b61163c828260405180602001604052806000815250611f2e565b5050565b80600a60008481526020019081526020016000209081611660919061359b565b507ff8e1a15aba9398e019f0b49df1a4fde98ee17ae345cb5f6b5e2c27f5033e8ce7826040516116909190612d4f565b60405180910390a15050565b6000600b60009054906101000a900473ffffffffffffffffffffffffffffffffffffffff16905081600b60006101000a81548173ffffffffffffffffffffffffffffffffffffffff021916908373ffffffffffffffffffffffffffffffffffffffff1602179055508173ffffffffffffffffffffffffffffffffffffffff168173ffffffffffffffffffffffffffffffffffffffff167f8be0079c531659141344cd1fd0a4f28419497f9722a3daafe3b4186f6b6457e060405160405180910390a35050565b600073ffffffffffffffffffffffffffffffffffffffff168273ffffffffffffffffffffffffffffffffffffffff16036117d357816040517f5b08ba180000000000000000000000000000000000000000000000000000000081526004016117ca9190612c8c565b60405180910390fd5b80600560008573ffffffffffffffffffffffffffffffffffffffff1673ffffffffffffffffffffffffffffffffffffffff16815260200190815260200160002060008473ffffffffffffffffffffffffffffffffffffffff1673ffffffffffffffffffffffffffffffffffffffff16815260200190815260200160002060006101000a81548160ff0219169083151502179055508173ffffffffffffffffffffffffffffffffffffffff168373ffffffffffffffffffffffffffffffffffffffff167f17307eab39ab6107e8899845ad3d59bd9653f200f220920489ca2b5937696c31836040516118c49190612b1b565b60405180910390a3505050565b60008373ffffffffffffffffffffffffffffffffffffffff163b1115611a7b578273ffffffffffffffffffffffffffffffffffffffff1663150b7a02868685856040518563ffffffff1660e01b815260040161193094939291906136c2565b6020604051808303816000875af192505050801561196c57506040513d601f19601f820116820180604052508101906119699190613723565b60015b6119f0573d806000811461199c576040519150601f19603f3d011682016040523d82523d6000602084013e6119a1565b606091505b5060008151036119e857836040517f64a0ae920000000000000000000000000000000000000000000000000000000081526004016119df9190612c8c565b60405180910390fd5b805181602001fd5b63150b7a0260e01b7bffffffffffffffffffffffffffffffffffffffffffffffffffffffff1916817bffffffffffffffffffffffffffffffffffffffffffffffffffffffff191614611a7957836040517f64a0ae92000000000000000000000000000000000000000000000000000000008152600401611a709190612c8c565b60405180910390fd5b505b5050505050565b6060611a8d826114a6565b506000600a60008481526020019081526020016000208054611aae90613050565b80601f0160208091040260200160405190810160405280929190818152602001828054611ada90613050565b8015611b275780601f10611afc57610100808354040283529160200191611b27565b820191906000526020600020905b815481529060010190602001808311611b0a57829003601f168201915b505050505090506000611b38611f52565b90506000815103611b4d578192505050611b90565b600082511115611b82578082604051602001611b6a92919061378c565b60405160208183030381529060405292505050611b90565b611b8b84611f69565b925050505b919050565b60007f780e9d63000000000000000000000000000000000000000000000000000000007bffffffffffffffffffffffffffffffffffffffffffffffffffffffff1916827bffffffffffffffffffffffffffffffffffffffffffffffffffffffff19161480611c085750611c0782611fd2565b5b9050919050565b60006002600083815260200190815260200160002060009054906101000a900473ffffffffffffffffffffffffffffffffffffffff169050919050565b8080611c855750600073ffffffffffffffffffffffffffffffffffffffff168273ffffffffffffffffffffffffffffffffffffffff1614155b15611db9576000611c95846114a6565b9050600073ffffffffffffffffffffffffffffffffffffffff168373ffffffffffffffffffffffffffffffffffffffff1614158015611d0057508273ffffffffffffffffffffffffffffffffffffffff168173ffffffffffffffffffffffffffffffffffffffff1614155b8015611d135750611d11818461132b565b155b15611d5557826040517fa9fbf51f000000000000000000000000000000000000000000000000000000008152600401611d4c9190612c8c565b60405180910390fd5b8115611db757838573ffffffffffffffffffffffffffffffffffffffff168273ffffffffffffffffffffffffffffffffffffffff167f8c5be1e5ebec7d5bd14f71427d1e84f3dd0314c0f7b2291e5b200ac8c7c3b92560405160405180910390a45b505b836004600085815260200190815260200160002060006101000a81548173ffffffffffffffffffffffffffffffffffffffff021916908373ffffffffffffffffffffffffffffffffffffffff16021790555050505050565b600080611e1f8585856120b4565b9050600073ffffffffffffffffffffffffffffffffffffffff168173ffffffffffffffffffffffffffffffffffffffff1603611e6357611e5e846122ce565b611ea2565b8473ffffffffffffffffffffffffffffffffffffffff168173ffffffffffffffffffffffffffffffffffffffff1614611ea157611ea08185612317565b5b5b600073ffffffffffffffffffffffffffffffffffffffff168573ffffffffffffffffffffffffffffffffffffffff1603611ee457611edf84612402565b611f23565b8473ffffffffffffffffffffffffffffffffffffffff168173ffffffffffffffffffffffffffffffffffffffff1614611f2257611f2185856124d3565b5b5b809150509392505050565b611f38838361255e565b611f4d611f436115f2565b60008585856118d1565b505050565b606060405180602001604052806000815250905090565b6060611f74826114a6565b506000611f7f611f52565b90506000815111611f9f5760405180602001604052806000815250611fca565b80611fa984612657565b604051602001611fba92919061378c565b6040516020818303038152906040525b915050919050565b60007f80ac58cd000000000000000000000000000000000000000000000000000000007bffffffffffffffffffffffffffffffffffffffffffffffffffffffff1916827bffffffffffffffffffffffffffffffffffffffffffffffffffffffff1916148061209d57507f5b5e139f000000000000000000000000000000000000000000000000000000007bffffffffffffffffffffffffffffffffffffffffffffffffffffffff1916827bffffffffffffffffffffffffffffffffffffffffffffffffffffffff1916145b806120ad57506120ac82612725565b5b9050919050565b6000806120c084611c0f565b9050600073ffffffffffffffffffffffffffffffffffffffff168373ffffffffffffffffffffffffffffffffffffffff16146121025761210181848661278f565b5b600073ffffffffffffffffffffffffffffffffffffffff168173ffffffffffffffffffffffffffffffffffffffff161461219357612144600085600080611c4c565b6001600360008373ffffffffffffffffffffffffffffffffffffffff1673ffffffffffffffffffffffffffffffffffffffff168152602001908152602001600020600082825403925050819055505b600073ffffffffffffffffffffffffffffffffffffffff168573ffffffffffffffffffffffffffffffffffffffff1614612216576001600360008773ffffffffffffffffffffffffffffffffffffffff1673ffffffffffffffffffffffffffffffffffffffff168152602001908152602001600020600082825401925050819055505b846002600086815260200190815260200160002060006101000a81548173ffffffffffffffffffffffffffffffffffffffff021916908373ffffffffffffffffffffffffffffffffffffffff160217905550838573ffffffffffffffffffffffffffffffffffffffff168273ffffffffffffffffffffffffffffffffffffffff167fddf252ad1be2c89b69c2b068fc378daa952ba7f163c4a11628f55a4df523b3ef60405160405180910390a4809150509392505050565b6008805490506009600083815260200190815260200160002081905550600881908060018154018082558091505060019003906000526020600020016000909190919091505550565b600061232283610e68565b90506000600760008481526020019081526020016000205490506000600660008673ffffffffffffffffffffffffffffffffffffffff1673ffffffffffffffffffffffffffffffffffffffff16815260200190815260200160002090508282146123ce5760008160008581526020019081526020016000205490508082600085815260200190815260200160002081905550826007600083815260200190815260200160002081905550505b6007600085815260200190815260200160002060009055806000848152602001908152602001600020600090555050505050565b6000600160088054905061241691906137b0565b9050600060096000848152602001908152602001600020549050600060088381548110612446576124456132e8565b5b906000526020600020015490508060088381548110612468576124676132e8565b5b9060005260206000200181905550816009600083815260200190815260200160002081905550600960008581526020019081526020016000206000905560088054806124b7576124b66137e4565b5b6001900381819060005260206000200160009055905550505050565b600060016124e084610e68565b6124ea91906137b0565b905081600660008573ffffffffffffffffffffffffffffffffffffffff1673ffffffffffffffffffffffffffffffffffffffff168152602001908152602001600020600083815260200190815260200160002081905550806007600084815260200190815260200160002081905550505050565b600073ffffffffffffffffffffffffffffffffffffffff168273ffffffffffffffffffffffffffffffffffffffff16036125d05760006040517f64a0ae920000000000000000000000000000000000000000000000000000000081526004016125c79190612c8c565b60405180910390fd5b60006125de8383600061160c565b9050600073ffffffffffffffffffffffffffffffffffffffff168173ffffffffffffffffffffffffffffffffffffffff16146126525760006040517f73c6ac6e0000000000000000000000000000000000000000000000000000000081526004016126499190612c8c565b60405180910390fd5b505050565b60606000600161266684612853565b01905060008167ffffffffffffffff81111561268557612684612e33565b5b6040519080825280601f01601f1916602001820160405280156126b75781602001600182028036833780820191505090505b509050600082602001820190505b60011561271a578080600190039150507f3031323334353637383961626364656600000000000000000000000000000000600a86061a8153600a858161270e5761270d613813565b5b049450600085036126c5575b819350505050919050565b60007f01ffc9a7000000000000000000000000000000000000000000000000000000007bffffffffffffffffffffffffffffffffffffffffffffffffffffffff1916827bffffffffffffffffffffffffffffffffffffffffffffffffffffffff1916149050919050565b61279a8383836129a6565b61284e57600073ffffffffffffffffffffffffffffffffffffffff168373ffffffffffffffffffffffffffffffffffffffff160361280f57806040517f7e2732890000000000000000000000000000000000000000000000000000000081526004016128069190612d4f565b60405180910390fd5b81816040517f177e802f00000000000000000000000000000000000000000000000000000000815260040161284592919061314a565b60405180910390fd5b505050565b600080600090507a184f03e93ff9f4daa797ed6e38ed64bf6a1f01000000000000000083106128b1577a184f03e93ff9f4daa797ed6e38ed64bf6a1f01000000000000000083816128a7576128a6613813565b5b0492506040810190505b6d04ee2d6d415b85acef810000000083106128ee576d04ee2d6d415b85acef810000000083816128e4576128e3613813565b5b0492506020810190505b662386f26fc10000831061291d57662386f26fc10000838161291357612912613813565b5b0492506010810190505b6305f5e1008310612946576305f5e100838161293c5761293b613813565b5b0492506008810190505b612710831061296b57612710838161296157612960613813565b5b0492506004810190505b6064831061298e576064838161298457612983613813565b5b0492506002810190505b600a831061299d576001810190505b80915050919050565b60008073ffffffffffffffffffffffffffffffffffffffff168373ffffffffffffffffffffffffffffffffffffffff1614158015612a5e57508273ffffffffffffffffffffffffffffffffffffffff168473ffffffffffffffffffffffffffffffffffffffff161480612a1f5750612a1e848461132b565b5b80612a5d57508273ffffffffffffffffffffffffffffffffffffffff16612a458361152e565b73ffffffffffffffffffffffffffffffffffffffff16145b5b90509392505050565b6000604051905090565b600080fd5b600080fd5b60007fffffffff0000000000000000000000000000000000000000000000000000000082169050919050565b612ab081612a7b565b8114612abb57600080fd5b50565b600081359050612acd81612aa7565b92915050565b600060208284031215612ae957612ae8612a71565b5b6000612af784828501612abe565b91505092915050565b60008115159050919050565b612b1581612b00565b82525050565b6000602082019050612b306000830184612b0c565b92915050565b600081519050919050565b600082825260208201905092915050565b60005b83811015612b70578082015181840152602081019050612b55565b60008484015250505050565b6000601f19601f8301169050919050565b6000612b9882612b36565b612ba28185612b41565b9350612bb2818560208601612b52565b612bbb81612b7c565b840191505092915050565b60006020820190508181036000830152612be08184612b8d565b905092915050565b6000819050919050565b612bfb81612be8565b8114612c0657600080fd5b50565b600081359050612c1881612bf2565b92915050565b600060208284031215612c3457612c33612a71565b5b6000612c4284828501612c09565b91505092915050565b600073ffffffffffffffffffffffffffffffffffffffff82169050919050565b6000612c7682612c4b565b9050919050565b612c8681612c6b565b82525050565b6000602082019050612ca16000830184612c7d565b92915050565b612cb081612c6b565b8114612cbb57600080fd5b50565b600081359050612ccd81612ca7565b92915050565b600060208284031215612ce957612ce8612a71565b5b6000612cf784828501612cbe565b91505092915050565b60008060408385031215612d1757612d16612a71565b5b6000612d2585828601612cbe565b9250506020612d3685828601612c09565b9150509250929050565b612d4981612be8565b82525050565b6000602082019050612d646000830184612d40565b92915050565b600080600060608486031215612d8357612d82612a71565b5b6000612d9186828701612cbe565b9350506020612da286828701612cbe565b9250506040612db386828701612c09565b9150509250925092565b612dc681612b00565b8114612dd157600080fd5b50565b600081359050612de381612dbd565b92915050565b60008060408385031215612e0057612dff612a71565b5b6000612e0e85828601612cbe565b9250506020612e1f85828601612dd4565b9150509250929050565b600080fd5b600080fd5b7f4e487b7100000000000000000000000000000000000000000000000000000000600052604160045260246000fd5b612e6b82612b7c565b810181811067ffffffffffffffff82111715612e8a57612e89612e33565b5b80604052505050565b6000612e9d612a67565b9050612ea98282612e62565b919050565b600067ffffffffffffffff821115612ec957612ec8612e33565b5b612ed282612b7c565b9050602081019050919050565b82818337600083830152505050565b6000612f01612efc84612eae565b612e93565b905082815260208101848484011115612f1d57612f1c612e2e565b5b612f28848285612edf565b509392505050565b600082601f830112612f4557612f44612e29565b5b8135612f55848260208601612eee565b91505092915050565b60008060008060808587031215612f7857612f77612a71565b5b6000612f8687828801612cbe565b9450506020612f9787828801612cbe565b9350506040612fa887828801612c09565b925050606085013567ffffffffffffffff811115612fc957612fc8612a76565b5b612fd587828801612f30565b91505092959194509250565b60008060408385031215612ff857612ff7612a71565b5b600061300685828601612cbe565b925050602061301785828601612cbe565b9150509250929050565b7f4e487b7100000000000000000000000000000000000000000000000000000000600052602260045260246000fd5b6000600282049050600182168061306857607f821691505b60208210810361307b5761307a613021565b5b50919050565b7f41646472657373206973206e6f7420616e20617574686f72697a6564206d696e60008201527f7465720000000000000000000000000000000000000000000000000000000000602082015250565b60006130dd602383612b41565b91506130e882613081565b604082019050919050565b6000602082019050818103600083015261310c816130d0565b9050919050565b60006060820190506131286000830186612c7d565b6131356020830185612d40565b6131426040830184612c7d565b949350505050565b600060408201905061315f6000830185612c7d565b61316c6020830184612d40565b9392505050565b7f4d696e746572206e6f7420617574686f72697a65640000000000000000000000600082015250565b60006131a9601583612b41565b91506131b482613173565b602082019050919050565b600060208201905081810360008301526131d88161319c565b9050919050565b7f4e6f7420617574686f72697a656420746f206d696e74206f72206c696d69742060008201527f7265616368656400000000000000000000000000000000000000000000000000602082015250565b600061323b602783612b41565b9150613246826131df565b604082019050919050565b6000602082019050818103600083015261326a8161322e565b9050919050565b7f4e487b7100000000000000000000000000000000000000000000000000000000600052601160045260246000fd5b60006132ab82612be8565b91507fffffffffffffffffffffffffffffffffffffffffffffffffffffffffffffffff82036132dd576132dc613271565b5b600182019050919050565b7f4e487b7100000000000000000000000000000000000000000000000000000000600052603260045260246000fd5b7f496e76616c6964206d696e746572206164647265737300000000000000000000600082015250565b600061334d601683612b41565b915061335882613317565b602082019050919050565b6000602082019050818103600083015261337c81613340565b9050919050565b7f4d696e74657220616c726561647920617574686f72697a656400000000000000600082015250565b60006133b9601983612b41565b91506133c482613383565b602082019050919050565b600060208201905081810360008301526133e8816133ac565b9050919050565b60008190508160005260206000209050919050565b60006020601f8301049050919050565b600082821b905092915050565b6000600883026134517fffffffffffffffffffffffffffffffffffffffffffffffffffffffffffffffff82613414565b61345b8683613414565b95508019841693508086168417925050509392505050565b6000819050919050565b600061349861349361348e84612be8565b613473565b612be8565b9050919050565b6000819050919050565b6134b28361347d565b6134c66134be8261349f565b848454613421565b825550505050565b600090565b6134db6134ce565b6134e68184846134a9565b505050565b5b8181101561350a576134ff6000826134d3565b6001810190506134ec565b5050565b601f82111561354f57613520816133ef565b61352984613404565b81016020851015613538578190505b61354c61354485613404565b8301826134eb565b50505b505050565b600082821c905092915050565b600061357260001984600802613554565b1980831691505092915050565b600061358b8383613561565b9150826002028217905092915050565b6135a482612b36565b67ffffffffffffffff8111156135bd576135bc612e33565b5b6135c78254613050565b6135d282828561350e565b600060209050601f83116001811461360557600084156135f3578287015190505b6135fd858261357f565b865550613665565b601f198416613613866133ef565b60005b8281101561363b57848901518255600182019150602085019450602081019050613616565b868310156136585784890151613654601f891682613561565b8355505b6001600288020188555050505b505050505050565b600081519050919050565b600082825260208201905092915050565b60006136948261366d565b61369e8185613678565b93506136ae818560208601612b52565b6136b781612b7c565b840191505092915050565b60006080820190506136d76000830187612c7d565b6136e46020830186612c7d565b6136f16040830185612d40565b81810360608301526137038184613689565b905095945050505050565b60008151905061371d81612aa7565b92915050565b60006020828403121561373957613738612a71565b5b60006137478482850161370e565b91505092915050565b600081905092915050565b600061376682612b36565b6137708185613750565b9350613780818560208601612b52565b80840191505092915050565b6000613798828561375b565b91506137a4828461375b565b91508190509392505050565b60006137bb82612be8565b91506137c683612be8565b92508282039050818111156137de576137dd613271565b5b92915050565b7f4e487b7100000000000000000000000000000000000000000000000000000000600052603160045260246000fd5b7f4e487b7100000000000000000000000000000000000000000000000000000000600052601260045260246000fdfe697066733a2f2f516d6174694c5a6f6a37505a7755336763714d7741684e35516d4e31476f4275786a5257626b394478515a746642a26469706673582212201e8a2aef0eefc8e763e6bc6787753e62e32bc0d40d30bb55615a39700ee255f664736f6c63430008140033",
  "linkReferences": {},
  "deployedLinkReferences": {}
}