{
  "_format": "hh-sol-artifact-1",
  "contractName": "BoxLottery",
  "sourceName": "contracts/BoxLottery.sol",
  "abi": [
    {
      "inputs": [],
      "stateMutability": "nonpayable",
      "type": "constructor"
    },
    {
      "inputs": [
        {
          "internalType": "address",
          "name": "owner",
          "type": "address"
        }
      ],
      "name": "OwnableInvalidOwner",
      "type": "error"
    },
    {
      "inputs": [
        {
          "internalType": "address",
          "name": "account",
          "type": "address"
        }
      ],
      "name": "OwnableUnauthorizedAccount",
      "type": "error"
    },
    {
      "inputs": [],
      "name": "ReentrancyGuardReentrantCall",
      "type": "error"
    },
    {
      "anonymous": false,
      "inputs": [
        {
          "indexed": true,
          "internalType": "address",
          "name": "player",
          "type": "address"
        },
        {
          "indexed": false,
          "internalType": "uint256",
          "name": "boxId",
          "type": "uint256"
        },
        {
          "indexed": false,
          "internalType": "enum BoxLottery.PrizeType",
          "name": "prizeType",
          "type": "uint8"
        }
      ],
      "name": "BoxOpened",
      "type": "event"
    },
    {
      "anonymous": false,
      "inputs": [
        {
          "indexed": true,
          "internalType": "address",
          "name": "nftTokenContract",
          "type": "address"
        }
      ],
      "name": "NFTTokenContractSet",
      "type": "event"
    },
    {
      "anonymous": false,
      "inputs": [
        {
          "indexed": true,
          "internalType": "address",
          "name": "previousOwner",
          "type": "address"
        },
        {
          "indexed": true,
          "internalType": "address",
          "name": "newOwner",
          "type": "address"
        }
      ],
      "name": "OwnershipTransferred",
      "type": "event"
    },
    {
      "anonymous": false,
      "inputs": [
        {
          "indexed": true,
          "internalType": "address",
          "name": "player",
          "type": "address"
        },
        {
          "indexed": false,
          "internalType": "uint256",
          "name": "boxId",
          "type": "uint256"
        },
        {
          "indexed": false,
          "internalType": "enum BoxLottery.PrizeType",
          "name": "prizeType",
          "type": "uint8"
        }
      ],
      "name": "PrizeClaimed",
      "type": "event"
    },
    {
      "inputs": [],
      "name": "LARGE_PRIZE",
      "outputs": [
        {
          "internalType": "uint256",
          "name": "",
          "type": "uint256"
        }
      ],
      "stateMutability": "view",
      "type": "function"
    },
    {
      "inputs": [],
      "name": "MEDIUM_PRIZE",
      "outputs": [
        {
          "internalType": "uint256",
          "name": "",
          "type": "uint256"
        }
      ],
      "stateMutability": "view",
      "type": "function"
    },
    {
      "inputs": [],
      "name": "PRICE_PER_BOX",
      "outputs": [
        {
          "internalType": "uint256",
          "name": "",
          "type": "uint256"
        }
      ],
      "stateMutability": "view",
      "type": "function"
    },
    {
      "inputs": [],
      "name": "SMALL_PRIZE",
      "outputs": [
        {
          "internalType": "uint256",
          "name": "",
          "type": "uint256"
        }
      ],
      "stateMutability": "view",
      "type": "function"
    },
    {
      "inputs": [],
      "name": "TOTAL_BOXES",
      "outputs": [
        {
          "internalType": "uint256",
          "name": "",
          "type": "uint256"
        }
      ],
      "stateMutability": "view",
      "type": "function"
    },
    {
      "inputs": [
        {
          "internalType": "uint256",
          "name": "",
          "type": "uint256"
        }
      ],
      "name": "boxes",
      "outputs": [
        {
          "internalType": "bool",
          "name": "opened",
          "type": "bool"
        },
        {
          "internalType": "enum BoxLottery.PrizeType",
          "name": "prizeType",
          "type": "uint8"
        },
        {
          "internalType": "bool",
          "name": "claimed",
          "type": "bool"
        }
      ],
      "stateMutability": "view",
      "type": "function"
    },
    {
      "inputs": [
        {
          "internalType": "uint256",
          "name": "boxId",
          "type": "uint256"
        }
      ],
      "name": "claimPrize",
      "outputs": [],
      "stateMutability": "nonpayable",
      "type": "function"
    },
    {
      "inputs": [
        {
          "internalType": "uint256",
          "name": "boxId",
          "type": "uint256"
        }
      ],
      "name": "getBoxStatus",
      "outputs": [
        {
          "internalType": "bool",
          "name": "opened",
          "type": "bool"
        },
        {
          "internalType": "bool",
          "name": "claimed",
          "type": "bool"
        }
      ],
      "stateMutability": "view",
      "type": "function"
    },
    {
      "inputs": [],
      "name": "nftToken",
      "outputs": [
        {
          "internalType": "contract NFTToken",
          "name": "",
          "type": "address"
        }
      ],
      "stateMutability": "view",
      "type": "function"
    },
    {
      "inputs": [
        {
          "internalType": "uint256",
          "name": "boxId",
          "type": "uint256"
        }
      ],
      "name": "openBox",
      "outputs": [],
      "stateMutability": "payable",
      "type": "function"
    },
    {
      "inputs": [],
      "name": "owner",
      "outputs": [
        {
          "internalType": "address",
          "name": "",
          "type": "address"
        }
      ],
      "stateMutability": "view",
      "type": "function"
    },
    {
      "inputs": [],
      "name": "renounceOwnership",
      "outputs": [],
      "stateMutability": "nonpayable",
      "type": "function"
    },
    {
      "inputs": [
        {
          "internalType": "address",
          "name": "_nftToken",
          "type": "address"
        }
      ],
      "name": "setNFTTokenContract",
      "outputs": [],
      "stateMutability": "nonpayable",
      "type": "function"
    },
    {
      "inputs": [
        {
          "internalType": "address",
          "name": "newOwner",
          "type": "address"
        }
      ],
      "name": "transferOwnership",
      "outputs": [],
      "stateMutability": "nonpayable",
      "type": "function"
    },
    {
      "inputs": [],
      "name": "withdraw",
      "outputs": [],
      "stateMutability": "nonpayable",
      "type": "function"
    },
    {
      "stateMutability": "payable",
      "type": "receive"
    }
  ],
  "bytecode": "0x60806040523480156200001157600080fd5b5033600073ffffffffffffffffffffffffffffffffffffffff168173ffffffffffffffffffffffffffffffffffffffff1603620000885760006040517f1e4fbdf70000000000000000000000000000000000000000000000000000000081526004016200007f91906200087e565b60405180910390fd5b6200009981620000b760201b60201c565b5060018081905550620000b16200017b60201b60201c565b62000b0e565b60008060009054906101000a900473ffffffffffffffffffffffffffffffffffffffff169050816000806101000a81548173ffffffffffffffffffffffffffffffffffffffff021916908373ffffffffffffffffffffffffffffffffffffffff1602179055508173ffffffffffffffffffffffffffffffffffffffff168173ffffffffffffffffffffffffffffffffffffffff167f8be0079c531659141344cd1fd0a4f28419497f9722a3daafe3b4186f6b6457e060405160405180910390a35050565b6000606467ffffffffffffffff8111156200019b576200019a6200089b565b5b604051908082528060200260200182016040528015620001ca5781602001602082028036833780820191505090505b50905060005b6064811015620002135780828281518110620001f157620001f0620008ca565b5b60200260200101818152505080806200020a9062000932565b915050620001d0565b506000600160646200022691906200097f565b90505b600081111562000317576000600182620002449190620009ba565b42836040516020016200025992919062000a1a565b6040516020818303038152906040528051906020012060001c6200027e919062000a79565b9050828181518110620002965762000295620008ca565b5b6020026020010151838381518110620002b457620002b3620008ca565b5b6020026020010151848481518110620002d257620002d1620008ca565b5b60200260200101858481518110620002ef57620002ee620008ca565b5b60200260200101828152508281525050505080806200030e9062000ab1565b91505062000229565b50600060405180606001604052806000151581526020016003600481111562000345576200034462000adf565b5b81526020016000151581525060026000848480620003639062000932565b955081518110620003795762000378620008ca565b5b6020026020010151815260200190815260200160002060008201518160000160006101000a81548160ff02191690831515021790555060208201518160000160016101000a81548160ff02191690836004811115620003dd57620003dc62000adf565b5b021790555060408201518160000160026101000a81548160ff02191690831515021790555090505060005b600381101562000513576040518060600160405280600015158152602001600260048111156200043d576200043c62000adf565b5b815260200160001515815250600260008585806200045b9062000932565b965081518110620004715762000470620008ca565b5b6020026020010151815260200190815260200160002060008201518160000160006101000a81548160ff02191690831515021790555060208201518160000160016101000a81548160ff02191690836004811115620004d557620004d462000adf565b5b021790555060408201518160000160026101000a81548160ff02191690831515021790555090505080806200050a9062000932565b91505062000408565b5060005b600f81101562000622576040518060600160405280600015158152602001600160048111156200054c576200054b62000adf565b5b815260200160001515815250600260008585806200056a9062000932565b96508151811062000580576200057f620008ca565b5b6020026020010151815260200190815260200160002060008201518160000160006101000a81548160ff02191690831515021790555060208201518160000160016101000a81548160ff02191690836004811115620005e457620005e362000adf565b5b021790555060408201518160000160026101000a81548160ff0219169083151502179055509050508080620006199062000932565b91505062000517565b5060005b6006811015620007305760405180606001604052806000151581526020016004808111156200065a576200065962000adf565b5b81526020016000151581525060026000858580620006789062000932565b9650815181106200068e576200068d620008ca565b5b6020026020010151815260200190815260200160002060008201518160000160006101000a81548160ff02191690831515021790555060208201518160000160016101000a81548160ff02191690836004811115620006f257620006f162000adf565b5b021790555060408201518160000160026101000a81548160ff0219169083151502179055509050508080620007279062000932565b91505062000626565b5060008190505b606481101562000834576040518060600160405280600015158152602001600060048111156200076c576200076b62000adf565b5b81526020016000151581525060026000858481518110620007925762000791620008ca565b5b6020026020010151815260200190815260200160002060008201518160000160006101000a81548160ff02191690831515021790555060208201518160000160016101000a81548160ff02191690836004811115620007f657620007f562000adf565b5b021790555060408201518160000160026101000a81548160ff02191690831515021790555090505080806200082b9062000932565b91505062000737565b505050565b600073ffffffffffffffffffffffffffffffffffffffff82169050919050565b6000620008668262000839565b9050919050565b620008788162000859565b82525050565b60006020820190506200089560008301846200086d565b92915050565b7f4e487b7100000000000000000000000000000000000000000000000000000000600052604160045260246000fd5b7f4e487b7100000000000000000000000000000000000000000000000000000000600052603260045260246000fd5b7f4e487b7100000000000000000000000000000000000000000000000000000000600052601160045260246000fd5b6000819050919050565b60006200093f8262000928565b91507fffffffffffffffffffffffffffffffffffffffffffffffffffffffffffffffff8203620009745762000973620008f9565b5b600182019050919050565b60006200098c8262000928565b9150620009998362000928565b9250828203905081811115620009b457620009b3620008f9565b5b92915050565b6000620009c78262000928565b9150620009d48362000928565b9250828201905080821115620009ef57620009ee620008f9565b5b92915050565b6000819050919050565b62000a1462000a0e8262000928565b620009f5565b82525050565b600062000a288285620009ff565b60208201915062000a3a8284620009ff565b6020820191508190509392505050565b7f4e487b7100000000000000000000000000000000000000000000000000000000600052601260045260246000fd5b600062000a868262000928565b915062000a938362000928565b92508262000aa65762000aa562000a4a565b5b828206905092915050565b600062000abe8262000928565b91506000820362000ad45762000ad3620008f9565b5b600182039050919050565b7f4e487b7100000000000000000000000000000000000000000000000000000000600052602160045260246000fd5b6117798062000b1e6000396000f3fe6080604052600436106100ec5760003560e01c8063a921bc5b1161008a578063d4b3c61711610059578063d4b3c617146102bf578063d7098154146102ea578063eb9780cc14610313578063f2fde38b1461033e576100f3565b8063a921bc5b14610224578063b1e5e2b71461024d578063b8b3b48d14610269578063d06fcba814610294576100f3565b80634dfa3444116100c65780634dfa3444146101655780634ed3faf2146101a3578063715018a6146101e25780638da5cb5b146101f9576100f3565b8063373692dc146100f85780633ccfd60b146101235780634af2b4401461013a576100f3565b366100f357005b600080fd5b34801561010457600080fd5b5061010d610367565b60405161011a9190611074565b60405180910390f35b34801561012f57600080fd5b5061013861036c565b005b34801561014657600080fd5b5061014f6103c4565b60405161015c9190611074565b60405180910390f35b34801561017157600080fd5b5061018c600480360381019061018791906110c0565b6103cf565b60405161019a929190611108565b60405180910390f35b3480156101af57600080fd5b506101ca60048036038101906101c591906110c0565b610466565b6040516101d9939291906111a8565b60405180910390f35b3480156101ee57600080fd5b506101f76104b7565b005b34801561020557600080fd5b5061020e6104cb565b60405161021b9190611220565b60405180910390f35b34801561023057600080fd5b5061024b60048036038101906102469190611267565b6104f4565b005b610267600480360381019061026291906110c0565b6105f2565b005b34801561027557600080fd5b5061027e610797565b60405161028b9190611074565b60405180910390f35b3480156102a057600080fd5b506102a96107a2565b6040516102b691906112f3565b60405180910390f35b3480156102cb57600080fd5b506102d46107c8565b6040516102e19190611074565b60405180910390f35b3480156102f657600080fd5b50610311600480360381019061030c91906110c0565b6107d4565b005b34801561031f57600080fd5b50610328610e27565b6040516103359190611074565b60405180910390f35b34801561034a57600080fd5b5061036560048036038101906103609190611267565b610e33565b005b606481565b610374610eb9565b61037c6104cb565b73ffffffffffffffffffffffffffffffffffffffff166108fc479081150290604051600060405180830381858888f193505050501580156103c1573d6000803e3d6000fd5b50565b66354a6ba7a1800081565b60008060648310610415576040517f08c379a000000000000000000000000000000000000000000000000000000000815260040161040c9061136b565b60405180910390fd5b6002600084815260200190815260200160002060000160009054906101000a900460ff166002600085815260200190815260200160002060000160029054906101000a900460ff1691509150915091565b60026020528060005260406000206000915090508060000160009054906101000a900460ff16908060000160019054906101000a900460ff16908060000160029054906101000a900460ff16905083565b6104bf610eb9565b6104c96000610f40565b565b60008060009054906101000a900473ffffffffffffffffffffffffffffffffffffffff16905090565b6104fc610eb9565b600073ffffffffffffffffffffffffffffffffffffffff168173ffffffffffffffffffffffffffffffffffffffff160361056b576040517f08c379a0000000000000000000000000000000000000000000000000000000008152600401610562906113d7565b60405180910390fd5b80600360006101000a81548173ffffffffffffffffffffffffffffffffffffffff021916908373ffffffffffffffffffffffffffffffffffffffff1602179055508073ffffffffffffffffffffffffffffffffffffffff167fc026bf37ffb9004f36e978cd2fbc05a6e6ba7cc21fb9f7ce3a3bdc8a01e225e460405160405180910390a250565b6105fa611004565b6064811061063d576040517f08c379a00000000000000000000000000000000000000000000000000000000081526004016106349061136b565b60405180910390fd5b6002600082815260200190815260200160002060000160009054906101000a900460ff16156106a1576040517f08c379a000000000000000000000000000000000000000000000000000000000815260040161069890611443565b60405180910390fd5b66354a6ba7a1800034146106ea576040517f08c379a00000000000000000000000000000000000000000000000000000000081526004016106e1906114af565b60405180910390fd5b60016002600083815260200190815260200160002060000160006101000a81548160ff0219169083151502179055503373ffffffffffffffffffffffffffffffffffffffff167f465d1db9798268665147c6840d57ac3aaedc3df105a473c524c00a37ffd9add4826002600085815260200190815260200160002060000160019054906101000a900460ff166040516107849291906114cf565b60405180910390a261079461104a565b50565b66071afd498d000081565b600360009054906101000a900473ffffffffffffffffffffffffffffffffffffffff1681565b67016345785d8a000081565b6107dc611004565b6064811061081f576040517f08c379a00000000000000000000000000000000000000000000000000000000081526004016108169061136b565b60405180910390fd5b6002600082815260200190815260200160002060000160009054906101000a900460ff16610882576040517f08c379a000000000000000000000000000000000000000000000000000000000815260040161087990611544565b60405180910390fd5b6002600082815260200190815260200160002060000160029054906101000a900460ff16156108e6576040517f08c379a00000000000000000000000000000000000000000000000000000000081526004016108dd906115b0565b60405180910390fd5b6004808111156108f9576108f8611131565b5b6002600083815260200190815260200160002060000160019054906101000a900460ff16600481111561092f5761092e611131565b5b03610aa157600073ffffffffffffffffffffffffffffffffffffffff16600360009054906101000a900473ffffffffffffffffffffffffffffffffffffffff1673ffffffffffffffffffffffffffffffffffffffff16036109c5576040517f08c379a00000000000000000000000000000000000000000000000000000000081526004016109bc9061161c565b60405180910390fd5b600360009054906101000a900473ffffffffffffffffffffffffffffffffffffffff1673ffffffffffffffffffffffffffffffffffffffff1663aa271e1a306040518263ffffffff1660e01b8152600401610a209190611220565b602060405180830381865afa158015610a3d573d6000803e3d6000fd5b505050506040513d601f19601f82011682018060405250810190610a619190611668565b610aa0576040517f08c379a0000000000000000000000000000000000000000000000000000000008152600401610a97906116e1565b60405180910390fd5b5b60016002600083815260200190815260200160002060000160026101000a81548160ff02191690831515021790555060016004811115610ae457610ae3611131565b5b6002600083815260200190815260200160002060000160019054906101000a900460ff166004811115610b1a57610b19611131565b5b03610b72573373ffffffffffffffffffffffffffffffffffffffff166108fc66071afd498d00009081150290604051600060405180830381858888f19350505050158015610b6c573d6000803e3d6000fd5b50610da9565b60026004811115610b8657610b85611131565b5b6002600083815260200190815260200160002060000160019054906101000a900460ff166004811115610bbc57610bbb611131565b5b03610c15573373ffffffffffffffffffffffffffffffffffffffff166108fc67016345785d8a00009081150290604051600060405180830381858888f19350505050158015610c0f573d6000803e3d6000fd5b50610da8565b60036004811115610c2957610c28611131565b5b6002600083815260200190815260200160002060000160019054906101000a900460ff166004811115610c5f57610c5e611131565b5b03610cb8573373ffffffffffffffffffffffffffffffffffffffff166108fc670de0b6b3a76400009081150290604051600060405180830381858888f19350505050158015610cb2573d6000803e3d6000fd5b50610da7565b600480811115610ccb57610cca611131565b5b6002600083815260200190815260200160002060000160019054906101000a900460ff166004811115610d0157610d00611131565b5b03610da657600360009054906101000a900473ffffffffffffffffffffffffffffffffffffffff1673ffffffffffffffffffffffffffffffffffffffff166340d097c3336040518263ffffffff1660e01b8152600401610d619190611220565b6020604051808303816000875af1158015610d80573d6000803e3d6000fd5b505050506040513d601f19601f82011682018060405250810190610da49190611716565b505b5b5b5b3373ffffffffffffffffffffffffffffffffffffffff167f53e3c45643a014901c16ab423f86c7d01176630d62d4adef2c2396f539fc6567826002600085815260200190815260200160002060000160019054906101000a900460ff16604051610e149291906114cf565b60405180910390a2610e2461104a565b50565b670de0b6b3a764000081565b610e3b610eb9565b600073ffffffffffffffffffffffffffffffffffffffff168173ffffffffffffffffffffffffffffffffffffffff1603610ead5760006040517f1e4fbdf7000000000000000000000000000000000000000000000000000000008152600401610ea49190611220565b60405180910390fd5b610eb681610f40565b50565b610ec1611053565b73ffffffffffffffffffffffffffffffffffffffff16610edf6104cb565b73ffffffffffffffffffffffffffffffffffffffff1614610f3e57610f02611053565b6040517f118cdaa7000000000000000000000000000000000000000000000000000000008152600401610f359190611220565b60405180910390fd5b565b60008060009054906101000a900473ffffffffffffffffffffffffffffffffffffffff169050816000806101000a81548173ffffffffffffffffffffffffffffffffffffffff021916908373ffffffffffffffffffffffffffffffffffffffff1602179055508173ffffffffffffffffffffffffffffffffffffffff168173ffffffffffffffffffffffffffffffffffffffff167f8be0079c531659141344cd1fd0a4f28419497f9722a3daafe3b4186f6b6457e060405160405180910390a35050565b600260015403611040576040517f3ee5aeb500000000000000000000000000000000000000000000000000000000815260040160405180910390fd5b6002600181905550565b60018081905550565b600033905090565b6000819050919050565b61106e8161105b565b82525050565b60006020820190506110896000830184611065565b92915050565b600080fd5b61109d8161105b565b81146110a857600080fd5b50565b6000813590506110ba81611094565b92915050565b6000602082840312156110d6576110d561108f565b5b60006110e4848285016110ab565b91505092915050565b60008115159050919050565b611102816110ed565b82525050565b600060408201905061111d60008301856110f9565b61112a60208301846110f9565b9392505050565b7f4e487b7100000000000000000000000000000000000000000000000000000000600052602160045260246000fd5b6005811061117157611170611131565b5b50565b600081905061118282611160565b919050565b600061119282611174565b9050919050565b6111a281611187565b82525050565b60006060820190506111bd60008301866110f9565b6111ca6020830185611199565b6111d760408301846110f9565b949350505050565b600073ffffffffffffffffffffffffffffffffffffffff82169050919050565b600061120a826111df565b9050919050565b61121a816111ff565b82525050565b60006020820190506112356000830184611211565b92915050565b611244816111ff565b811461124f57600080fd5b50565b6000813590506112618161123b565b92915050565b60006020828403121561127d5761127c61108f565b5b600061128b84828501611252565b91505092915050565b6000819050919050565b60006112b96112b46112af846111df565b611294565b6111df565b9050919050565b60006112cb8261129e565b9050919050565b60006112dd826112c0565b9050919050565b6112ed816112d2565b82525050565b600060208201905061130860008301846112e4565b92915050565b600082825260208201905092915050565b7f496e76616c696420626f78204944000000000000000000000000000000000000600082015250565b6000611355600e8361130e565b91506113608261131f565b602082019050919050565b6000602082019050818103600083015261138481611348565b9050919050565b7f496e76616c6964204e465420746f6b656e206164647265737300000000000000600082015250565b60006113c160198361130e565b91506113cc8261138b565b602082019050919050565b600060208201905081810360008301526113f0816113b4565b9050919050565b7f426f7820616c7265616479206f70656e65640000000000000000000000000000600082015250565b600061142d60128361130e565b9150611438826113f7565b602082019050919050565b6000602082019050818103600083015261145c81611420565b9050919050565b7f496e636f7272656374207061796d656e7420616d6f756e740000000000000000600082015250565b600061149960188361130e565b91506114a482611463565b602082019050919050565b600060208201905081810360008301526114c88161148c565b9050919050565b60006040820190506114e46000830185611065565b6114f16020830184611199565b9392505050565b7f426f78206e6f74206f70656e6564207965740000000000000000000000000000600082015250565b600061152e60128361130e565b9150611539826114f8565b602082019050919050565b6000602082019050818103600083015261155d81611521565b9050919050565b7f5072697a6520616c726561647920636c61696d65640000000000000000000000600082015250565b600061159a60158361130e565b91506115a582611564565b602082019050919050565b600060208201905081810360008301526115c98161158d565b9050919050565b7f4e465420746f6b656e20636f6e7472616374206e6f7420736574000000000000600082015250565b6000611606601a8361130e565b9150611611826115d0565b602082019050919050565b60006020820190508181036000830152611635816115f9565b9050919050565b611645816110ed565b811461165057600080fd5b50565b6000815190506116628161163c565b92915050565b60006020828403121561167e5761167d61108f565b5b600061168c84828501611653565b91505092915050565b7f436f6e7472616374206e6f7420617574686f72697a656420746f206d696e7400600082015250565b60006116cb601f8361130e565b91506116d682611695565b602082019050919050565b600060208201905081810360008301526116fa816116be565b9050919050565b60008151905061171081611094565b92915050565b60006020828403121561172c5761172b61108f565b5b600061173a84828501611701565b9150509291505056fea26469706673582212209b89ccaf3bb54f935abc0bbc56fca97fa8d20ae8d9cca9c130462f57ec7193de64736f6c63430008140033",
  "linkReferences": {},
  "deployedLinkReferences": {}
}